:020000040000FA
:060000000A128A11EE2F26
:100620008316031306083F38860008000A128A1151
:100630004A230A128A1183160313111408000A129E
:100640008A114A230A128A1183160313111508000E
:100650000A128A111F230A128A110A128A111623FA
:100660000A128A110800F0000A128A114A230A129B
:100670008A11700883120313930008008316031372
:1006800088010508C3398500831203130508C3399F
:10069000850008008316031314194F2B502B4A2B87
:1006A00011081F39031D552B562B4A2B08003F34C8
:1006B00006345B344F3466346D347D3407347F3414
:1006C0006F343F343F343F343F3401347E088A0076
:1006D0007F0882000A128A1166230A128A1180009A
:1006E000840A04087D0603190034FF0A0319FE0A70
:1006F0006A2B003083120313A3000130A20086305E
:10070000A100A030A0000A128A115C240A128A11EA
:100710000A128A1110230A128A110A128A113E2320
:100720000A128A110800F0000A128A114A230A12DA
:100730008A118316031391150A128A114A230A1289
:100740008A11831203131308F1007003031DA92BF0
:10075000AA2BAE2B831603139116B12B831603130A
:100760009112111671080800F801F901741CB92BD7
:10077000BA2BC02B7608F8070318F90A7708F9078F
:1007800001300310F60DF70DFF3E031DC12B0130A4
:100790000310F50CF40CFF3E031DC82B7408750400
:1007A000031DD32BD42BB62B7908F5007808F40061
:1007B000080083120313A1000A128A114A230A12A5
:1007C0008A110A128A1116230A128A11A0300A12FB
:1007D0008A1133230A128A118312031321080A1281
:1007E0008A1133230A128A118312031320080A1272
:1007F0008A1133230A128A110A128A111F230A123C
:100800008A110800F1007108031D072C082C0D2C1B
:100810008312031306083F392B2C3F308312031336
:100820000605F0003F3070060319172C182C1F2CFA
:100830005A0803191C2C1D2C1F2CDA01082C3F30E0
:100840000605F0003F307006031D272C282C2A2CAB
:10085000DA01DA0A3F300800F2000A128A114A234C
:100860000A128A110A128A1116230A128A11A0305A
:100870000A128A1133230A128A1172080A128A1183
:1008800033230A128A110A128A1128230A128A11A2
:10089000A1300A128A1133230A128A1100300A1277
:1008A0008A1193230A128A11F3000A128A111F2354
:1008B0000A128A1173080800831203139415200882
:1008C000A4002108A5002208A6002308A7000230E2
:1008D0000310A40DA50DA60DA70DFF3E031D682C4A
:1008E0002708F3002608F2002508F1002408F0008C
:1008F0000130F7003130F6002D30F5000030F40003
:100900000A128A1162250A128A117008FF3E8316A4
:1009100003139300831203139416080078087904D4
:100920000319932C942CC32CFD01FD0AA22C013039
:100930000310F80DF90DFF3E031D982C0130FC004B
:100940007C08FD07F91FA52CA62C972C79087B02A3
:10095000031DAC2C78087A02031CAF2CB02CB62CEB
:100960007808FA027908031CFB03FB02013003102C
:10097000F90CF80CFF3E031DB72C0130FD02031DDE
:10098000C22CC32CA62C7B08F9007A08F8000800BA
:10099000F501F601700871040319CF2CD02C072D36
:1009A000F701F70ADE2C01300310F00DF10DFF3EC8
:1009B000031DD42C0130F4007408F707F11FE12C5B
:1009C000E22CD32C01300310F50DF60DFF3E031D74
:1009D000E32C71087302031DEF2C70087202031CD4
:1009E000F22CF32CFA2C7008F2027108031CF303AA
:1009F000F302751401300310F10CF00CFF3E031DDF
:100A0000FB2C0130F702031D062D072DE22C760882
:100A1000F1007508F0000800F800F901790878077E
:100A2000F000700884008313000883120313880009
:100A30000430F000790A1E2D0310F00DFF3E031D57
:100A40001C2D0508C339700485000030F700003004
:100A5000F6000030F500C830F4000130F00000303E
:100A6000F1000030F2000030F3007008F402710869
:100A7000031C710F3C2D3D2DF5027208031C720FF3
:100A8000422D432DF6027308031C730F482D492D88
:100A9000F702740A031D562D750A031D562D760A9A
:100AA000031D562D770A031D562D572D2D2D013070
:100AB000F0007008F90704307902031C602D612DE5
:100AC0000E2D08000030FC000030FB000030FA0062
:100AD0000030F90073087204710470040319712D59
:100AE000722DBF2DFD01FD0A822D0130F80003108B
:100AF000F00DF10DF20DF30DF80B772D0130F8002C
:100B00007808FD07F31F852D862D752D0130F8001F
:100B10000310F90DFA0DFB0DFC0DF80B882D730871
:100B20007702031D9D2D72087602031D9D2D71080D
:100B30007502031D9D2D70087402031CA02DA12DAC
:100B4000B02D7008F4027108031C710FF5027208D1
:100B5000031C720FF6027308031C730FF70279145B
:100B600001300310F30CF20CF10CF00CFF3E031DEE
:100B7000B12D0130FD02031DBE2DBF2D862D7C0839
:100B8000F3007B08F2007A08F1007908F000080011
:100B9000831203135908C5005808C4005708C3003E
:100BA0005608C200343084004C30A8000408A90064
:100BB0000A30AA002808840083130008AB00A80AA2
:100BC000290884002B088000A90AAA0BDA2DC60187
:100BD000C7010A128A1179230A128A1104300A12F3
:100BE0008A112C240A128A1183120313A800A90166
:100BF0002808F4002908F500E830F6000330F70073
:100C00000A128A11B4230A128A1174088312031378
:100C1000AA007508AB0003300A128A112C240A12AC
:100C20008A1183120313AC00AD012C08F4002D08C7
:100C3000F5006430F6000030F7000A128A11B42380
:100C40000A128A117408831203132A07AE0075086A
:100C50000318750A2B07AF0002300A128A112C24E0
:100C60000A128A1183120313B000B1013008F40094
:100C70003108F5000A30F6000030F7000A128A1138
:100C8000B4230A128A117408831203132E07B200C8
:100C900075080318750A2F07B30001300A128A116C
:100CA0002C240A128A11831203133207BE0000306B
:100CB000031801303307BF004A084B04031D612E9F
:100CC000622E662E3F08CB003E08CA0001300A1291
:100CD0008A1102240A128A1183120313C9000030F8
:100CE0000A128A1102240A128A1183120313C800FD
:100CF0002C30C0000130C100FF30C0070318C10A0A
:100D0000FF30C107400A031D892E410A031D892EA9
:100D10008A2E7C2E3E304906031D8F2E902EAB2E40
:100D200027304B02103003194A020318982E992ECF
:100D3000A02E0130CA070318CB0A0030CB07AB2E18
:100D400027304B02103003194A02031CA82EA92E8B
:100D5000AB2ECA01CB013D304906031DB02EB12E8A
:100D6000372F0A30F8000030F9004B08FB004A0822
:100D7000FA000A128A118E240A128A117808831244
:100D80000313A00001300A128A11D9230A128A1112
:100D90000A30F8000030F9000A30F0000030F100AD
:100DA000831203134B08F3004A08F2000A128A1157
:100DB000C8240A128A117108FB007008FA000A128E
:100DC0008A118E240A128A11780883120313A00054
:100DD00002300A128A11D9230A128A110A30F80045
:100DE0000030F9006430F0000030F100831203138A
:100DF0004B08F3004A08F2000A128A11C8240A12AA
:100E00008A117108FB007008FA000A128A118E24F8
:100E10000A128A11780883120313A00003300A1201
:100E20008A11D9230A128A11E830F0000330F10048
:100E3000831203134B08F3004A08F2000A128A11C6
:100E4000C8240A128A11700883120313A000043008
:100E50000A128A11D9230A128A1183120313A001DC
:100E6000A00A05300A128A11D9230A128A113E30CB
:100E7000831203134806031D3E2F3F2F762F0130A8
:100E8000C6070318C70A0030C707F5304606031D1A
:100E90004D2F4703031D4D2F4E2F762FC601C7013F
:100EA000A00101300A128A11D9230A128A11831271
:100EB0000313A00102300A128A11D9230A128A11DF
:100EC00083120313A00103300A128A11D9230A12D4
:100ED0008A1183120313A00104300A128A11D92344
:100EE0000A128A1183120313CA01CB010A30F800D7
:100EF0000030F9004B08FB004A08FA000A128A1178
:100F00008E240A128A117808343E84008313000864
:100F100083120313C5000A30F0000030F1004B08C3
:100F2000FB004A08FA006430F8000030F9000A12A9
:100F30008A118E240A128A117908F3007808F200C7
:100F40000A128A11C8240A128A117008343E8400D9
:100F50008313000883120313C4006430F0000030D0
:100F6000F1004B08FB004A08FA00E830F8000330B3
:100F7000F9000A128A118E240A128A117908F300E4
:100F80007808F2000A128A11C8240A128A1170081D
:100F9000343E84008313000883120313C300E83037
:100FA000F0000330F1004B08F3004A08F2000A1287
:100FB0008A11C8240A128A117008343E84008313EF
:100FC000000883120313C20042300A128A110C2552
:100FD0000A128A11EE2D0A128A11002883135B303F
:100FE000FD000330FE005730FF004C3084000A1231
:100FF0008A116A230A128A1183010A128A11C82DE2
:02400E00FB3F76
:00000001FF
