:020000040000FA
:060000000A128A110C280F
:10000800FE00030EF0000A08F1000A128A118E2A77
:100018000A128A110F2883133E30FD000430FE00B7
:100028001830FF00353084000A128A11D3230A12CF
:100038008A110A128A1121240A128A11FB00BE01B0
:10004800BF01F901FA0183010A128A112B2827300E
:100058008400353083120313A3000408A40007307A
:10006800A5002308840083130008A600A30A240817
:10007800840026088000A40AA50B35280A128A11D4
:100088003E230A128A1100300A128A118F230A129B
:100098008A1183120313B2000A30F2000030F30011
:1000A8003F08F5003E08F4000A128A11CE220A120F
:1000B8008A11720883120313B3000A30F200003069
:1000C800F3003F08F5003E08F4000A128A1148229E
:1000D8000A128A11720883120313B4003203031D33
:1000E80076287728D0280A30F2000030F3003F083D
:1000F800F5003E08F4000A128A1148220A128A11F1
:100108007208053E83120313BC0073080318013EEE
:10011800003EBD00C030F6003408303E0A128A1195
:10012800E2230A128A11C130F6008312031333083E
:10013800303E0A128A11E2230A128A11831203132B
:100148003C08C03EF600FF300A128A11E2230A1268
:100158008A110030831203133F02633003193E02F1
:100168000318B728B828D0280130BE070318BF0ADB
:100178000030BF07C830AE000030AF00FF30AE0718
:100188000318AF0AFF30AF072E0A031DCF282F0A26
:10019800031DCF28D028C22802303206031DD528D7
:1001A800D62847280A30F2000030F3003F08F5004F
:1001B8003E08F4000A128A1148220A128A117208AB
:1001C800053E83120313BC0073080318013E003E6A
:1001D800BD00C030F6003408303E0A128A11E2230E
:1001E8000A128A11C130F600831203133308303E15
:1001F8000A128A11E2230A128A11831203133C0895
:10020800C03EF60016300A128A11E2230A128A1139
:10021800831203133E083F0403191329142947289E
:1002280000303F02643003193E0203181C291D29BF
:1002380047280130BE020030031CBF03BF02C8308C
:10024800B0000030B100FF30B0070318B10AFF302A
:10025800B107300A031D3429310A031D3429352911
:10026800272947280A128A110C2883120313881198
:100278000815881408146430F2000030F300FF30C9
:10028800F2070318F30AFF30F307720A031D502917
:10029800730A031D50295129432983120313061891
:1002A8005629572959290130E42986185C295D29DE
:1002B8005F290230E4290619622963296529033078
:1002C800E42988150811881408146430F2000030F5
:1002D800F300FF30F2070318F30AFF30F307720A3E
:1002E800031D7A29730A031D7A297B296D29831234
:1002F800031306188029812983290430E4298618E4
:100308008629872989290530E42906198C298D2908
:100318008F290630E42988150815881008146430D8
:10032800F2000030F300FF30F2070318F30AFF3041
:10033800F307720A031DA429730A031DA429A5291A
:100348009729831203130618AA29AB29AD29073068
:10035800E4298618B029B129B3290830E4290619F7
:10036800B629B729B9290930E42988150815881448
:1003780008106430F2000030F300FF30F207031871
:10038800F30AFF30F307720A031DCE29730A031D0F
:10039800CE29CF29C129831203130618D429D529B8
:1003A800D7292A30E4298618DA29DB29DD29003003
:1003B800E4290619E029E129E3292330E429FF305B
:1003C8000800C330F700CD30F600F60BE929F70B2B
:1003D800E929F20133300A128A1108230A128A1114
:1003E8001B30F7009E30F600F60BF829F70BF829BA
:1003F8000000F20133300A128A1108230A128A1106
:10040800A630F600F60B062A0000F20133300A1275
:100418008A1108230A128A11112A122A0000F201ED
:1004280002300A128A1108230A128A11A630F6002D
:10043800F60B1C2A0000F20128300A128A11082340
:100448000A128A11A630F600F60B282A0000F201DB
:1004580001300A128A1108230A128A110430F7009F
:100468003D30F600F60B362AF70B362A3B2AF20106
:100478000C300A128A1108230A128A11A630F600D3
:10048800F60B442A0000080083120313A101A201FD
:10049800720873040319512A522A892AA001A00A52
:1004A800602A01300310F20DF30DFF3E031D562A9A
:1004B8000130F6007608A007F31F632A642A552A3C
:1004C80001300310A10DA20DFF3E031D652A73081C
:1004D8007502031D712A72087402031C742A752A96
:1004E8007C2A7208F4027308031CF503F502211430
:1004F80001300310F30CF20CFF3E031D7D2A01307E
:10050800A002031D882A892A642A2208F3002108E8
:10051800F20008000B1D912A922AC72A831203139E
:100528000108083E81003F087A02031D9D2A3E0803
:1005380079020318A02AA12AA32A8617B72A3F08F6
:100548007A02031DA92A3E087902031CAC2AAD2AA7
:10055800B72A00307A026330031979020318B52AE2
:10056800B62AB72A86130130F9070318FA0A0030A9
:10057800FA07643079067A04031DC32AC42AC62AF6
:10058800F901FA010B1171088A00700E8300FE0E42
:100598007E0E0900720873040319D32AD42A032B88
:1005A800F701F70AE22A01300310F20DF30DFF3EBE
:1005B800031DD82A0130F6007608F707F31FE52A4D
:1005C800E62AD72A73087502031DEC2A72087402FA
:1005D800031CEF2AF02AF62A7208F4027308031C97
:1005E800F503F50201300310F30CF20CFF3E031D76
:1005F800F72A0130F702031D022B032BE62A7508A0
:10060800F3007408F2000800F50072180C2B102B88
:10061800831203130915132B831203130911750889
:10062800F03988008914A630F300F30B192B000069
:1006380083120313891075080F39F3000330031070
:10064800F30DFF3E031D232B0310730D880089143F
:10065800A630F300F30B2E2B00008312031389102E
:100668001B30F4009E30F300F30B382BF40B382BBF
:10067800000008008312031386018316031306087B
:100688003F3986000A128A110E240A128A110A12A8
:100698008A1103240A128A110A128A11F3230A12F0
:1006A8008A118030F60001300A128A1167230A1273
:1006B8008A11C030F60010300A128A1167230A1214
:1006C8008A118B170800F800F20176080A128A11BD
:1006D80008230A128A11822BF201F20A7808840090
:1006E8000A128A11B2230A128A110A128A110823DD
:1006F8000A128A110130F7007708F8077808840091
:100708000A128A11B2230A128A11003A031D8D2B8C
:100718008E2B702B0800F4000A128A1139210A1254
:100728008A11F5007408031D9A2B9B2B9D2B7508C5
:10073800B12B750A0319A12BA22BA92B7B0803192E
:10074800A62BA72BA92BFB019B2B750A031DAD2BF1
:10075800AE2BB02BFB01FB0AFF30080003308A00E8
:100768000408840A820700344C3445344434203465
:100778004234723469346734683474346E3465349E
:100788007334733400343034303425342D343E34EB
:100798000034203400347E088A007F0882000A1260
:1007A8008A11CF230A128A118000840A04087D0660
:1007B80003190034FF0A0319FE0AD32BF700F201CC
:1007C80076080A128A1108230A128A11F201F20A1B
:1007D80077080A128A1108230A128A110800831658
:1007E80003130608073886000808F03988008113C3
:1007F8008312031388150815881408140800831633
:1008080003138801091189100A128A11E5210A12B5
:100818008A1108008316031381128115063083128A
:10082800031381008B160800203420342034203430
:0C08380020342034003405340034013436
:02400E00FB3F76
:00000001FF
