:020000040000FA
:060000000A128A11F62F1E
:100EFC00831603139F17831203131F140800831206
:100F0C00031388018316031388010A128A117E27A2
:100F1C000A128A110800831203131F151F19972F29
:100F2C00982F942F1E08F900831603131E08F8003F
:100F3C007908F7007808F60008000A128A1185274C
:100F4C000A128A110A128A1191270A128A11770839
:100F5C00FB007608FA007B08F7007A08F6000A1204
:100F6C008A11BE270A128A11A82F0A128A11002888
:100F7C000130F0020030031CF103F102700A031D72
:100F8C00CB2F710A031DCB2FCC2FD42F3230F00076
:100F9C000030F1007708F5007608F400730875024C
:100FAC00031DDA2F72087402031CDD2FDE2FE22FD3
:100FBC00831203130814E52F831203130810720A0B
:100FCC00033003197306031DEC2FED2FEF2FF201E5
:100FDC00F3010130F2070318F30A0030F30708009D
:100FEC00F001F101F201F301F401F50183010A12A0
:040FFC008A11A32F84
:02400E00FB3F76
:00000001FF
