:020000040000FA
:060000000A128A11EE2F26
:100BEC00831603139F17831203131F1408003F343B
:100BFC0006345B344F3466346D347D3407347F34C3
:100C0C006F340A128A11F6250A128A110A128A11F5
:100C1C0012260A128A11080083160313880105088C
:100C2C00C3398500831203130508C33985000800F6
:100C3C00831203131F151F19242E252E212E1E0877
:100C4C00F300831603131E08F2007308F1007208F8
:100C5C00F00008007E088A007F0882000A128A11C0
:100C6C0030260A128A118000840A04087D060319B2
:100C7C000034FF0A0319FE0A342E7008710403199C
:100C8C00482E492E782EF501F50A572E0130031007
:100C9C00F00DF10DFF3E031D4D2E0130F4007408D4
:100CAC00F507F11F5A2E5B2E4C2E71087302031D93
:100CBC00612E70087202031C642E652E6B2E700858
:100CCC00F2027108031CF303F30201300310F10C60
:100CDC00F00CFF3E031D6C2E0130F502031D772E28
:100CEC00782E5B2E7308F1007208F0000800FB01EF
:100CFC00FC01760877040319842E852EBC2EFD0189
:100D0C00FD0A932E01300310F60DF70DFF3E031D67
:100D1C00892E0130FA007A08FD07F71F962E972EC0
:100D2C00882E01300310FB0DFC0DFF3E031D982E89
:100D3C0077087902031DA42E76087802031CA72ECF
:100D4C00A82EAF2E7608F8027708031CF903F902D7
:100D5C007B1401300310F70CF60CFF3E031DB02E74
:100D6C000130FD02031DBB2EBC2E972E7C08F70014
:100D7C007B08F6000800F800F90179087807F00004
:100D8C007008840083130008831203138800043056
:100D9C00F000790AD32E0310F00DFF3E031DD12E67
:100DAC000508C339700485000030F7000030F600E8
:100DBC000030F5001430F4000130F0000030F10088
:100DCC000030F2000030F3007008F4027108031CCC
:100DDC00710FF12EF22EF5027208031C720FF72E12
:100DEC00F82EF6027308031C730FFD2EFE2EF7026D
:100DFC00740A031D0B2F750A031D0B2F760A031D96
:100E0C000B2F770A031D0B2F0C2FE22E0130F00055
:100E1C007008F90704307902031C152F162FC32E06
:100E2C00080024308400363083120313A000040819
:100E3C00A1000A30A2002008840083130008A3003C
:100E4C00A00A2108840023088000A10AA20B212FEC
:100E5C000F30B4002730B500AE01AF010A128A1171
:100E6C0007260A128A11013083120313AE070318E6
:100E7C00AF0A0030AF070A128A111E260A128A1115
:100E8C007008013E83120313A00071080318013E81
:100E9C00003EA1002F082106031D562F2E08200608
:100EAC00031D592F5A2FD62FAE01AF010A30F00077
:100EBC000030F1003508F3003408F2000A128A11F0
:100ECC0043260A128A117008243E840083130008FA
:100EDC0083120313B3000A30F6000030F700350814
:100EEC00F3003408F2006430F0000030F1000A1214
:100EFC008A1143260A128A117108F9007008F80049
:100F0C000A128A117D260A128A117608243E840060
:100F1C008313000883120313B2006430F600003010
:100F2C00F7003508F3003408F200E830F000033025
:100F3C00F1000A128A1143260A128A117108F9006B
:100F4C007008F8000A128A117D260A128A11760896
:100F5C00243E84008313000883120313B100E8308D
:100F6C00F6000330F7003508F9003408F8000A12CF
:100F7C008A117D260A128A117608243E8400831376
:100F8C00000883120313B000340835040319CF2F63
:100F9C00D02FD62F0130B4020030031CB503B5029C
:100FAC0034083504031DDB2FDC2FE42F3F30B30056
:100FBC003F30B2003F30B1003F30B00030300A1249
:100FCC008A11C1260A128A11392F0A128A11002895
:100FDC0083134030FD000530FE00FD30FF0036303D
:100FEC0084000A128A1134260A128A1183010A1209
:040FFC008A11172F10
:02400E00FB3F76
:00000001FF
