:020000040000FA
:060000000A128A110C280F
:10000800FE00030EF0000A08F1000A128A11D72830
:100018000A128A110F2883133830FD000130FE00C0
:10002800A430FF00303084000A128A1179210A12A4
:100038008A110A128A11BA210A128A11FB00203089
:10004800840030300A128A11AC210A128A11F9018F
:10005800FA0183010A128A115D298B1A342835287E
:100068003F28003083120313B3000030B200003081
:10007800B1000A30B00000300A128A112D210A128C
:100088008A11F8000130F4000030F5000030F60065
:100098000030F700740883120313A8027508031CC4
:1000A800750F57285828A9027608031C760F5D2873
:1000B8005E28AA027708031C770F63286428AB021E
:1000C800280A031D7128290A031D71282A0A031DFD
:1000D80071282B0A031D712872288B28003083127F
:1000E8000313AB000030AA000330A900E830A800D1
:1000F8003E307806031D812882288B280030B30003
:100108000030B2000030B1006430B0008B168312AA
:10011800031333082F02031D9B2832082E02031DE8
:100128009B2831082D02031D9B2830082C02031838
:100138009E289F28A1280814B4282F083302031DDD
:10014800AF282E083202031DAF282D083102031DE7
:10015800AF282C0830020318B228B328B428081096
:100168000130AC07003003180130AD070030031828
:100178000130AE07003003180130AF0765302C0698
:100188002D042E042F04031DCA28CB283128003043
:1001980083120313AF000030AE000030AD00003012
:1001A800AC00312808000B1DDA28DB282629831229
:1001B80003130108083E81000130A407003003182A
:1001C8000130A507003003180130A60700300318D6
:1001D8000130A707983024063A300319250626046B
:1001E8002704031DF828F928252900308312031352
:1001F800A7000030A6000030A5000030A4000130A0
:10020800A007003003180130A1070030031801309F
:10021800A207003003180130A30705302006210487
:1002280022042304031D19291A29252900308312C1
:100238000313A3000030A2000030A1000030A0008A
:100248008B120B1171088A00700E8300FE0E7E0E51
:100258000900F3007308031D322933293829831252
:10026800031306083F395C290130F9070318FA0A15
:100278000030FA073F30831203130605F2003F30BF
:10028800720603194829492950297B0803194D2961
:100298004E295029FB0133293F300605F2003F3033
:1002A8007206031D582959295B29FB01FB0A3F30B7
:1002B80008000A128A1188210A128A1100300A12CB
:1002C8008A112D210A128A1183120313B8003808E3
:1002D8000A128A1131200A128A1162290A128A1115
:1002E8000C287E088A007F0882000A128A1175216C
:1002F8000A128A118000840A04087D060319003452
:10030800FF0A0319FE0A7929831203138801831649
:10031800031388010A128A11B4210A128A110A12D7
:100328008A119A210A128A118B170800831603135F
:100338008112811506308312031381008B16080081
:10034800323400340034003464340034003400346F
:1003580064008001840A0406031900340406AD29E8
:0E0368008316031306083F3886000800013490
:02400E00FB3F76
:00000001FF
