:020000040000FA
:060000000A128A110C280F
:10000800FE00030EF2000A08F3000A128A11E22821
:100018000A128A110F2883134430FD000230FE00B3
:100028004E30FF003A3084000A128A1126220A1242
:100038008A110A128A1160220A128A11F8000A1219
:100048008A1161220A128A11F900A001A101A201F4
:10005800A301A401A501A601A701A801A901AA015C
:10006800AB01AC01AD01F601F70183010A128A1157
:100078003D280A128A1158220A128A110A128A1174
:1000880035220A128A110A3083120313B500003090
:10009800B6000A30AE000030AF007908B100780829
:1000A800B0000A128A116A210A128A1183120313F4
:1000B8002F08B8002E08B7000A128A11B0210A12B8
:1000C8008A118312031335083A3E8400831300080B
:1000D800AA00280829040319722873288A280A30D4
:1000E800B5000030B6007908B8007808B7000A12E1
:1000F8008A11B0210A128A118312031335083A3E75
:100108008400831300088038AB009F280A30B500AC
:100118000030B6007908B8007808B7000A128A11CA
:10012800B0210A128A118312031335083A3E84005B
:1001380083130008AB000A30B5000030B6000A305F
:10014800AE000030AF007708B1007608B0000A12A0
:100158008A116A210A128A11831203132F08B80020
:100168002E08B7000A128A11B0210A128A118312C6
:10017800031335083A3E840083130008AC000A30A4
:10018800B5000030B6007708B8007608B7000A1244
:100198008A11B0210A128A118312031335083A3ED4
:1001A800840083130008AD002A300A128A11EC215A
:1001B8000A128A1147280A128A110C28831203137B
:1001C8008C1CE728E82863290130A40700300318AD
:1001D8000130A507003003180130A60700300318C6
:1001E8000130A707103024062730031925062604F6
:1001F8002704031D0029012919290030831203133C
:10020800A7000030A6000030A5000030A400280890
:100218002904031910291229013013290030F0008C
:10022800F1017008A8007108A900013083120313B6
:10023800A007003003180130A1070030031801306F
:10024800A207003003180130A307803020064F3082
:10025800031921061230031922062304031D352928
:1002680036294629003083120313A3000030A20068
:100278000030A1000030A0000130F6070318F70A8B
:100288000030F7073C3076067704031D4C294D29CA
:100298005529F601F7010130F8070318F90A00306B
:1002A800F90700307902183003197802031C5D2918
:1002B8005E296029F801F901831203138C10730871
:1002C8008A00720E8300FE0E7E0E0900831203134D
:1002D800B301B4012E082F04031973297429AB291B
:1002E800B201B20A822901300310AE0DAF0DFF3EF4
:1002F800031D78290130F4007408B207AF1F85295F
:100308008629772901300310B30DB40DFF3E031D74
:1003180087292F083102031D93292E083002031C58
:10032800962997299E292E08B0022F08031CB1038D
:10033800B102331401300310AF0CAE0CFF3E031DA5
:100348009F290130B202031DAA29AB298629340846
:10035800AF003308AE0008008312031335083604D3
:100368000319B729B829E729B901B90AC6290130FB
:100378000310B50DB60DFF3E031DBC290130F50075
:100388007508B907B61FC929CA29BB293608380212
:10039800031DD02935083702031CD329D429DA29AB
:1003A8003508B7023608031CB803B8020130031039
:1003B800B60CB50CFF3E031DDB290130B902031D45
:1003C800E629E729CA293808B6003708B500080021
:1003D80083120313B000B10131083007F400740828
:1003E80084008313000888000430F400310AFE29D1
:1003F8000310F40DFF3E031DFC290508C3397404DE
:1004080085009030AE000130AF000130AE02003000
:10041800031CAF03AF022E0A031D162A2F0A031D61
:10042800162A172A092A0130F4007408B107043083
:100438003102031C202A212AF02908007E088A009C
:100448007F0882000A128A1122220A128A11800069
:10045800840A04087D0603190034FF0A0319FE0AFA
:10046800262A8312031312109210FA3083160313EC
:1004780092008C14831203131215080083160313B9
:1004880088010508C3398500831203130508C33999
:10049800850008003F3406345B344F3466346D34CD
:1004A8007D3407347F346F340A128A1142220A12CB
:0C04B8008A110B178B1708000C3400345D
:02400E00FB3F76
:00000001FF
