:020000040000FA
:100000000A128A11E62F00308A000408840A820747
:100010000034203420342034203420342034203460
:100020002034203420342034203420342034203430
:100030002034003449346E3463346F347234723493
:1000400065346334743420347034613473347334FD
:1000500020343134003449346E3463346F347234B4
:1000600072346534633474342034703461347334DE
:10007000733420343234003449346E3463346F3492
:1000800072347234653463347434203470346134BF
:100090007334733420343334003449346E3463346D
:1000A0006F34723472346534633474342034703491
:1000B00061347334733420343434003449346E344E
:1000C00063346F347234723465346334743420347E
:1000D0007034613473347334203435340034433431
:1000E0006F34723472346534633474342034503471
:1000F00061347334733477346F347234643400345D
:100100005934653473342C342034503461347334AE
:10011000733477346F347234643420346934733414
:100120000034203441347434743465346D347034A4
:10013000743420344C3465346634743420342034C0
:100140000034523465347334653474342034743478
:1001500068346534203442346F346134723464342A
:10016000003445346E347434653472342034503481
:1001700061347334733477346F34723464340034DC
:100180004134743474346D347034743420344D34E8
:100190006134783469346D3475346D3400342A3404
:1001A0002A342A342A342A342A342A3400345F3454
:0201B000003419
:1003340001343034303430343034303430343034C8
:1003440030340034831603138801091189100A120A
:100354008A118F220A128A110800831603130608D1
:10036400073886000808F0398800811383120313C4
:10037400881508158814081408007E088A007F0868
:1003840082000A128A11BF210A128A118000840A8B
:1003940004087D0603190034FF0A0319FE0AC32961
:1003A40080308312031386008316031306087F39F3
:1003B40086000A128A11A4210A128A110A128A11C9
:1003C400AF210A128A110800F2000A128A11F222DD
:1003D4000A128A11F3007208031DF129F229F42983
:1003E4007308082A730A0319F829F929002A7B08D3
:1003F4000319FD29FE29002AFB01F229730A031DB2
:10040400042A052A072AFB01FB0AFF300800F6002C
:10041400F00174080A128A1159220A128A11242A34
:10042400F001F00A760884000A128A1103200A12E5
:100434008A110A128A1159220A128A110130F5000E
:100444007508F607760884000A128A1103200A1236
:100454008A11003A031D2F2A302A122A0800F500B7
:100464003B2A0130F2007208F5070130F2007208ED
:10047400F0077008840083130008F20075088400F4
:100484000008F30072087302F4007408031D4B2A79
:100494004C2A532A750884000008031D522A532A43
:1004A400332A7408F000F101F01BF1030800F30093
:1004B40070185D2A612A831203130915642A8312B2
:1004C400031309117308F03988008914A630F10068
:1004D400F10B6A2A000083120313891073080F3981
:1004E400F10003300310F10DFF3E031D742A0310C5
:1004F400710D88008914A630F100F10B7F2A0000E9
:100504008312031389101B30F2009E30F100F10BAB
:10051400892AF20B892A00000800C330F500CD3087
:10052400F400F40B932AF50B932AF00133300A12EA
:100534008A1159220A128A111B30F5009E30F400E8
:10054400F40BA22AF50BA22A0000F00133300A12A0
:100554008A1159220A128A11A630F400F40BB02A27
:100564000000F00133300A128A1159220A128A114A
:10057400BB2ABC2A0000F00102300A128A11592257
:100584000A128A11A630F400F40BC62A0000F00106
:1005940028300A128A1159220A128A11A630F4004C
:1005A400F40BD22A0000F00101300A128A115922F8
:1005B4000A128A110430F5003D30F400F40BE02AED
:1005C400F50BE02AE52AF0010C300A128A115922AF
:1005D4000A128A11A630F400F40BEE2A0000080077
:1005E4008312031388110815881408146430F0006A
:1005F4000030F100FF30F0070318F10AFF30F10773
:10060400700A031D092B710A031D092B0A2BFC2AEE
:100614008312031306180F2B102B122B01309D2B62
:100624008618152B162B182B02309D2B06191B2B05
:100634001C2B1E2B03309D2B8815081188140814BD
:100644006430F0000030F100FF30F0070318F10AC5
:10065400FF30F107700A031D332B710A031D332B7E
:10066400342B262B831203130618392B3A2B3C2BDD
:1006740004309D2B86183F2B402B422B05309D2B9D
:100684000619452B462B482B06309D2B881508153B
:10069400881008146430F0000030F100FF30F007D7
:1006A4000318F10AFF30F107700A031D5D2B710A6C
:1006B400031D5D2B5E2B502B831203130618632B33
:1006C400642B662B07309D2B8618692B6A2B6C2BA9
:1006D40008309D2B06196F2B702B722B09309D2B24
:1006E40088150815881408106430F0000030F100F3
:1006F400FF30F0070318F10AFF30F107700A031DF9
:10070400872B710A031D872B882B7A2B83120313E3
:1007140006188D2B8E2B902B2A309D2B8618932B0D
:10072400942B962B00309D2B0619992B9A2B9C2BDE
:1007340023309D2BFF3008000A128A11D2210A129D
:100744008A11003083120313BA000030B90000305C
:10075400B8000030B7000030BE000030BD000030EB
:10076400BC000030BB000530BF000030C0002030AA
:1007740084004130F7000408F8000930F9007708D4
:10078400840083130008FA00F70A780884007A08C2
:100794008000F80AF90BC12BB20101300A128A1148
:1007A400E6210A128A1183120313B600360A0319CA
:1007B400DC2BDD2BF72B4A08293E84003608303E1B
:1007C400831380000130CA070318CB0A0030CB071B
:1007D4000230F9004530F800A930F700F70BF02B90
:1007E400F80BF02BF90BF02BF72B831203134B08A8
:1007F400803AFF0080307F02031D022C08304A0239
:100804000318052C062C2A2E8030F400A9300A1275
:100814008A1109220A128A11831203134A084B040B
:10082400031D152C162C482C0130BB07003003186F
:100834000130BC07003003180130BD070030031835
:100844000130BE0705303B063C043D043E04031D55
:100854002C2C2D2C402C003083120313BE000030AE
:10086400BD000030BC000030BB00C430F400CF3009
:100874000A128A1109220A128A11482CC430F4007F
:1008840010300A128A1109220A128A1183120313E0
:100894004A034B04031D4F2C502C8C2CC430F40001
:1008A400CD300A128A1109220A128A1101308312E8
:1008B4000313BB07003003180130BC0700300318D2
:1008C4000130BD07003003180130BE0705303B0678
:1008D4003C043D043E04031D702C712C842C003018
:1008E40083120313BE000030BD000030BC00003092
:1008F400BB00C530F40010300A128A1109220A1212
:100904008A118C2CC530F400CF300A128A110922C6
:100914000A128A110230831203134A064B04031D80
:10092400942C952CD12CC430F400CC300A128A11AA
:1009340009220A128A11013083120313BB07003003
:1009440003180130BC07003003180130BD07003024
:1009540003180130BE0705303B063C043D043E0449
:10096400031DB52CB62CC92C003083120313BE0012
:100974000030BD000030BC000030BB00C630F400C5
:10098400CF300A128A1109220A128A11D12CC630D8
:10099400F40010300A128A1109220A128A11033053
:1009A400831203134A064B04031DD92CDA2C162D8B
:1009B400C430F400CB300A128A1109220A128A11B7
:1009C400013083120313BB07003003180130BC0746
:1009D400003003180130BD07003003180130BE0792
:1009E40005303B063C043D043E04031DFA2CFB2C5D
:1009F4000E2D003083120313BE000030BD00003002
:100A0400BC000030BB00C730F400CF300A128A119A
:100A140009220A128A11162DC730F40010300A1266
:100A24008A1109220A128A110430831203134A0616
:100A34004B04031D1E2D1F2D5B2DC430F400CA3042
:100A44000A128A1109220A128A110130831203132D
:100A5400BB07003003180130BC0700300318013015
:100A6400BD07003003180130BE0705303B063C04C7
:100A74003D043E04031D3F2D402D532D00308312B1
:100A84000313BE000030BD000030BC000030BB00CA
:100A9400C830F400CF300A128A1109220A128A11CE
:100AA4005B2DC830F40010300A128A1109220A1290
:100AB4008A110530831203134A064B04031D632D68
:100AC400642DA02DC430F400C9300A128A11092201
:100AD4000A128A11013083120313BB070030031872
:100AE4000130BC07003003180130BD070030031883
:100AF4000130BE0705303B063C043D043E04031DA3
:100B0400842D852D982D003083120313BE000030F0
:100B1400BD000030BC000030BB00C930F400CF3051
:100B24000A128A1109220A128A11A02DC930F4006E
:100B340010300A128A1109220A128A11063083120D
:100B440003134A064B04031DA82DA92DE52DC4301B
:100B5400F400C8300A128A1109220A128A110130DB
:100B640083120313BB07003003180130BC070030A5
:100B740003180130BD07003003180130BE070530EB
:100B84003B063C043D043E04031DC92DCA2DDD2D46
:100B9400003083120313BE000030BD000030BC00DF
:100BA4000030BB00CA30F400CF300A128A11092287
:100BB4000A128A11E52DCA30F40010300A128A1183
:100BC40009220A128A110730831203134A064B04BE
:100BD400031DED2DEE2D2A2EC430F400C7300A1269
:100BE4008A1109220A128A11013083120313BB07E6
:100BF400003003180130BC07003003180130BD0772
:100C0400003003180130BE0705303B063C043D04A8
:100C14003E04031D0E2E0F2E222E003083120313CA
:100C2400BE000030BD000030BC000030BB00CB3043
:100C3400F400CF300A128A1109220A128A112A2ECC
:100C4400CB30F40010300A128A1109220A128A11D8
:100C54000830831203134A064B04031D322E332E2D
:100C6400332F2930F00020300A128A1131220A125F
:100C74008A1170087104031D402E412E522E8030BB
:100C8400F40078300A128A1109220A128A11C0303B
:100C9400F40067300A128A1109220A128A11332FCA
:100CA400831203134008803AFF0080307F02031D43
:100CB4005D2E01303F02031C602E612E1D2F053076
:100CC400831203133F064004031D692E6A2E7A2EF5
:100CD4008030F40056300A128A1109220A128A114D
:100CE400C030F40089300A128A1109220A128A11CA
:100CF4000430831203133F064004031D822E832E07
:100D0400932E8030F40045300A128A1109220A1207
:100D14008A11C030F40089300A128A1109220A1299
:100D24008A110330831203133F064004031D9B2ED4
:100D34009C2EAC2E8030F40034300A128A11092221
:100D44000A128A11C030F40089300A128A11092269
:100D54000A128A110230831203133F064004031D52
:100D6400B42EB52EC52E8030F40023300A128A1119
:100D740009220A128A11C030F40089300A128A1139
:100D840009220A128A11831203133F034004031D2C
:100D9400CC2ECD2EDD2E8030F40012300A128A11B2
:100DA40009220A128A11C030F40089300A128A1109
:100DB40009220A128A11003083120313B50003308A
:100DC400B400D030B3009030B200FF30831203136C
:100DD400B207FF30031CB307FF30031CB407FF3016
:100DE400031CB507320A031D012F330A031D012F0B
:100DF400340A031D012F350A031D012F022FE72E8C
:100E0400FF3083120313BF070318C00AFF30C00763
:100E1400CA01CB018030F40001300A128A11092280
:100E24000A128A11C030F40001300A128A11092210
:100E34000A128A11332F8030F400B8300A128A1152
:100E440009220A128A11C030F40099300A128A1158
:100E540009220A128A11083083120313CA000030CF
:100E6400CB000530831203133F064004031D3B2FC0
:100E74003C2F602F0130B707003003180130B8074A
:100E8400003003180130B907003003180130BA07E5
:100E94000B303706380439043A04031D522F532FFC
:100EA400CF2B003083120313BA000030B900003096
:100EB400B8000030B70080308606CF2B04303F06E0
:100EC4004004031D662F672F7F2F0130B7070030C2
:100ED40003180130B807003003180130B907003097
:100EE40003180130BA0706303706380439043A04C7
:100EF400031D7D2F7E2FCF2B532F03303F0640043D
:100F0400031D852F862F9E2F0130B707003003184D
:100F14000130B807003003180130B9070030031856
:100F24000130BA0705303706380439043A04031D82
:100F34009C2F9D2FCF2B532F02303F064004031DBF
:100F4400A42FA52FBD2F0130B7070030031801309F
:100F5400B807003003180130B90700300318013016
:100F6400BA0704303706380439043A04031DBB2F8A
:100F7400BC2FCF2B532F3F034004031DC22FC32F7D
:100F8400DB2F0130B707003003180130B8070030F9
:100F940003180130B907003003180130BA070330D1
:100FA4003706380439043A04031DD92FDA2FCF2B1E
:100FB400532F3F084004031DE02FE12FCF2B86174A
:100FC400CF2B0A128A11002883134A30FD00013006
:100FD400FE009B30FF00413084000A128A11C321B5
:100FE4000A128A110A128A119A210A128A11FB0022
:0C0FF400CA01CB0183010A128A119E2B56
:02400E00FB3F76
:00000001FF
