:020000040000FA
:060000000A128A110C280F
:10000800FE00030EF0000A08F1000A128A11B52852
:100018000A128A110F280A128A1105210A128A1156
:10002800F9000A128A1106210A128A11FA000A1224
:100038008A1107210A128A11FB00FC01FD018301C4
:100048000A128A1127280A128A11DF200A128A1135
:1000580000300A128A118B200A128A11F8003E30E9
:100068007806031D382839285A2800307A02643067
:10007800031979020318412842285A280130F90740
:100088000318FA0A0030FA078830F4001330F50034
:10009800FF30F4070318F50AFF30F507740A031D4B
:1000A8005928750A031D59285A284C283D307806C6
:1000B800031D5F2860282C2879087A04031965280D
:1000C80066282C2800307A02653003197902031853
:1000D8006E286F282C280130F9020030031CFA031F
:1000E800FA028830F6001330F700FF30F6070318DD
:1000F800F70AFF30F707760A031D8628770A031DDB
:100108008628872879282C280A128A110C28F300B7
:100118007308031D90289128962883120313060854
:100128003F39B4283F30831203130605F2003F30ED
:1001380072060319A028A128A8287B080319A52856
:10014800A628A828FB0191283F300605F2003F3079
:100158007206031DB028B128B328FB01FB0A3F3003
:100168000800831203138C1CBA28BB28D8287D08E2
:100178007A02031DC1287C087902031CC428C528FB
:10018800C7280814C828081064307C067D04031D9D
:10019800CE28CF28D128FC01FD010130FC07031827
:1001A800FD0A0030FD078C1071088A00700E83006C
:1001B800FE0E7E0E090083120313880183160313B3
:1001C80088010A128A11FF200A128A110A128A115A
:1001D800F2200A128A110B178B17080083120313D7
:1001E80012109210FA308316031392008C148312A3
:1001F8000313121508008316031306083F388600F8
:08020800080032340034013417
:02400E00FB3F76
:00000001FF
