:020000040000FA
:060000000A128A110C280F
:10000800FE00030EF0000A08F1000A128A112C28DB
:100018000A128A110F280A128A11ED200A128A116F
:10002800F7000A128A11EE200A128A11F8000A1241
:100038008A11EF200A128A11F900A001A101A20178
:10004800A301F401F501F60183010A128A115A2865
:10005800831203138C1C3128322853280130A0073F
:10006800003003180130A107003003180130A2073F
:10007800003003180130A307413020069C300319D3
:10008800210622042304031D4A284B2850288316DE
:1000980003138C100A30F800831203138C107108B4
:1000A8008A00700E8300FE0E7E0E09000A128A1165
:1000B800D3200A128A1101300A128A1184200A12E6
:1000C8008A1183120313A600C830A4000030A500CB
:1000D800FF30A4070318A50AFF30A507240A031D4B
:1000E8007928250A031D79287A286C2826080A12F7
:1000F8008A11AE200A128A115F280A128A110C2866
:10010800F3007308031D89288A288F288312031394
:1001180006083F39AD283F30831203130605F20065
:100128003F307206031999289A28A12879080319DB
:100138009E289F28A128F9018A283F300605F20049
:100148003F307206031DA928AA28AC28F901F90A2C
:100158003F300800F3003E307306031DB428B5286D
:10016800BA286330F800831603138C1476087802D3
:10017800031CBF28C028C428831203130814C728E7
:1001880083120313081064307606031DCC28CD288B
:10019800CE28F6010130F2007208F6070800831233
:1001A800031388018316031388010B178B170A1290
:1001B8008A11E1200A128A1108008312031312100F
:1001C8009210FA3083160313920083120313121548
:0801D800080001343234013447
:02400E00FB3F76
:00000001FF
