:020000040000FA
:060000000A128A110C280F
:10000800FE00030EF6000A08F7000A128A111928E2
:100018000A128A110F28F001F101F201F301F4012B
:10002800F50183010A128A11B3280B1D1C281D280B
:100038003628831203130108083E81000130F407B3
:100048000318F50A0030F507103074062730031935
:100058007506031D302831283528F401F5010130D3
:1000680088060B11831203130C1C3B283C285528C7
:10007800FF308F000E08083E8E000130F20703188B
:10008800F30A0030F307103072062730031973069D
:10009800031D4F2850285428F201F3010230880626
:1000A8000C108C1C582859286D280130F0070318AB
:1000B800F10A0030F1071030700627300319710675
:1000C800031D672868286C28F001F10104308806B0
:1000D8008C1077088A00760E8300FE0E7E0E0900CB
:1000E8008312031388018316031388010A128A11E5
:1000F800A9200A128A110A128A118C200A128A115E
:100108000A128A119C200A128A110B178B170800F1
:1001180083120313901090121012831603130C14F9
:10012800831203131014FF308F0005308E0008006F
:100138008312031312109210FA30831603139200DD
:100148008C148312031312150800831603138112EB
:10015800811506308312031381008B1608000A12DA
:100168008A1174200A128A11B8280A128A110C28D6
:02400E00FB3F76
:00000001FF
