:020000040000FA
:100000000A128A11E22FFF1B0D2883137F18831712
:100010000008840A0319FF0A080000308A00040857
:10002000840A820700345534413452345434203425
:1000300043344C34433444342034503472346934BF
:080040006E3474340A340034FC
:10087E0064008001840A0406031900340406402C27
:10088E00831203138C1E4C2C4D2C472C8C121A08E1
:10089E000800831603138801091189100A128A11A0
:1008AE0002260A128A110800F00070088312031340
:1008BE0099000C1E632C642C602C0C12080070081E
:1008CE00F2007108F300712C0130F2070318F30ADD
:1008DE000030F307720884008317731C831300081B
:1008EE00031D7A2C7B2C6B2C70087202F0007108A1
:1008FE00031C710A7302F1000800F600F00174087F
:10090E000A128A1114250A128A119B2CF001F00A80
:10091E007608840000080A128A1114250A128A1118
:10092E000130F5007508F607760884008313000879
:10093E00031DA22CA32C8D2C08000A128A11502400
:10094E000A128A11003083120313A3000030A20092
:10095E002530A1008030A0000A128A1180250A12CB
:10096E008A110130F1008030F2000A128A11C4247B
:10097E000A128A110B178B170800D92C7208FF0068
:10098E00710884000A128A1103200A128A110A12AF
:10099E008A115B240A128A110130F1070318F20A38
:1009AE000030F207720883120313FF0071088400EF
:1009BE000A128A1103200A128A11003A031DE82C2A
:1009CE00E92CC52C0800F200F30173087207F00041
:1009DE00700884000A128A1147240A128A1183179A
:1009EE00800073087207F000700884000008F100A0
:1009FE000130F0007008F3070A307106031D082D50
:100A0E00092DEC2C0130F0007008F3077308720703
:100A1E00F0007008840080010800F3007018182D93
:100A2E001C2D8312031309151F2D83120313091195
:100A3E007308F03988008914A630F100F10B252DCA
:100A4E00000083120313891073080F39F10003306D
:100A5E000310F10DFF3E031D2F2D0310710D8800A5
:100A6E008914A630F100F10B3A2D00008312031306
:100A7E0089101B30F2009E30F100F10B442DF20B69
:100A8E00442D00000800F30070184E2D522D8312D5
:100A9E0003130915552D8312031309117308F03929
:100AAE0088008914A630F100F10B5B2D0000831233
:100ABE000313891073080F39F10003300310F10D81
:100ACE00FF3E031D652D0310710D88008914A6309D
:100ADE00F100F10B702D00008312031389101B30EF
:100AEE00F2009E30F100F10B7A2DF20B7A2D000000
:100AFE0008008312031398178316031318159816FC
:100B0E008312031318162008A4002108A50022083A
:100B1E00A6002308A70004300310A40DA50DA60DF2
:100B2E00A70DFF3E031D932D2708F3002608F200A4
:100B3E002508F1002408F0000130F7003130F600EE
:100B4E002D30F5000030F4000A128A1165260A12C3
:100B5E008A117008FF3E831603139900080074086B
:100B6E00FC007508FD00E02D0130F7020030031C7B
:100B7E00F803F8020130F607FF30760784000A12F8
:100B8E008A110D200A128A11F9007D08FB007C08DB
:100B9E00FA00FC0A0319FD0A7A08840083177B1CED
:100BAE008313790880000008031DDE2DDF2DE02D54
:100BBE00F32D77087804031DE52DE62DBB2DF32DBF
:100BCE007C08840083177D1C831380010130FC0791
:100BDE000318FD0A0030FD070130F7020030031C38
:100BEE00F803F802770A031D002E780A031D002E63
:100BFE00012EE72D0800C330F500CD30F400F40BC4
:100C0E00062EF50B062EF00133300A128A1114252A
:100C1E000A128A111B30F5009E30F400F40B152ECB
:100C2E00F50B152E0000F00133300A128A1114252F
:100C3E000A128A11A630F400F40B232E0000F001E4
:100C4E0033300A128A1114250A128A112E2E2F2ED3
:100C5E000000F00102300A128A1114250A128A11BC
:100C6E00A630F400F40B392E0000F00128300A12E1
:100C7E008A1114250A128A11A630F400F40B452E9F
:100C8E000000F00101300A128A1114250A128A118D
:100C9E000430F5003D30F400F40B532EF50B532EBB
:100CAE00582EF0010C300A128A1114250A128A11DC
:100CBE00A630F400F40B612E000008000030FC009A
:100CCE000030FB000030FA000030F90073087204A7
:100CDE00710470040319742E752EC22EFD01FD0AC7
:100CEE00852E0130F8000310F00DF10DF20DF30D0D
:100CFE00F80B7A2E0130F8007808FD07F31F882EC6
:100D0E00892E782E0130F8000310F90DFA0DFB0D27
:100D1E00FC0DF80B8B2E73087702031DA02E7208A4
:100D2E007602031DA02E71087502031DA02E7008F9
:100D3E007402031CA32EA42EB32E7008F4027108A5
:100D4E00031C710FF5027208031C720FF602730872
:100D5E00031C730FF702791401300310F30CF20C1D
:100D6E00F10CF00CFF3E031DB42E0130FD02031DED
:100D7E00C12EC22E892E7C08F3007B08F2007A0861
:100D8E00F1007908F0000800903084005A30FF001E
:100D9E0083178001840AFF0BCF2E3A308400113066
:100DAE00FF0083138001840AFF0BD82E29308400A4
:100DBE001130FF008001840AFF0BE12E8312031312
:100DCE00CB01CC010A128A11A4240A128A11903086
:100DDE000A128A11EA240A128A119030F1000130A7
:100DEE00F2000A128A11C4240A128A118312031302
:100DFE00CD01CE01982F0130CB070318CC0A00305D
:100E0E00CC0700304C02213003194B02031C102F6B
:100E1E00112F632F1130CB000030CC003A30F4008C
:100E2E000030F5001130F6003A30F0000030F100DD
:100E3E000A128A1166240A128A117108F8007008C3
:100E4E00F7000A128A11B6250A128A1183120313A9
:100E5E00CD01CE014D08293E840083130008A80061
:100E6E004D083A3E8400280880000130CD07031853
:100E7E00CE0A0030CE0700304E02103003194D025C
:100E8E00031C4A2F4B2F312F2930F4000030F50070
:100E9E001130F6002930F0000030F1000A128A11EC
:100EAE0066240A128A117108F8007008F7000A12F7
:100EBE008A11B6250A128A110030831203134C02CE
:100ECE00113003194B02031C6D2F6E2F7C2F4D0812
:100EDE00903E840083170008A8004B08EF3E293E81
:100EEE008400280883138000922F00304C021130AA
:100EFE0003194B020318842F852F922F4D08903E15
:100F0E00840083170008A8004B08FF3E3A3E840079
:100F1E002808831380000130CD070318CE0A003055
:100F2E00CE079030F0000130F1000A128A116624CB
:100F3E000A128A117108831203134E02031DA92F80
:100F4E0070084D02031CAC2FAD2F022FCA01B90140
:100F5E009030F4000130F5001130F6009030F000C2
:100F6E000130F1000A128A1166240A128A117108E0
:100F7E00F8007008F7000A128A11B6250A128A11B3
:100F8E00F00101300A128A114A250A128A118030A4
:100F9E00F4003A300A128A1184240A128A11C030DF
:100FAE00F40029300A128A1184240A128A11EE2EB4
:100FBE000A128A11002883134F30840060300A12FF
:100FCE008A113F240A128A11A0308400B1300A120D
:100FDE008A113F240A128A118317103084006A3056
:100FEE000A128A113F240A128A1183010A128A11E7
:020FFE00CB2EF8
:02400E00FB3F76
:00000001FF
