:020000040000FA
:060000000A128A110C280F
:10000800FE00030EF0000A08F1000A128A11052901
:100018000A128A110F280A128A1121210A128A113A
:10002800A8000A128A1122210A128A11A9000A12AA
:100038008A1123210A128A11AA000A128A1124217C
:100048000A128A11AB000A128A1125210A128A1192
:10005800AC000A128A1126210A128A11AD00830106
:100068000A128A113728831203132B08A7002A08BB
:10007800A6002908A5002808A4000A128A11F12060
:100088000A128A11831203132C082D0403194D2810
:100098004E2888280130A007003003180130A10736
:1000A800003003180130A207003003180130A307FD
:1000B80065302006210422042304031D64286528D2
:1000C8007728003083120313A3000030A200003009
:1000D800A1000030A00080308606FF30AC0703186E
:1000E800AD0AFF30AD07063083120313A4005B305E
:1000F800A5004F30A6006630A70024300A128A11E6
:100108009B200A128A1146280530AC000030AD0049
:10011800A401A501A601A70124300A128A119B2077
:100128000A128A11630046280A128A110C28FA005A
:10013800FB017B087A07F200720884008313000829
:100148008312031388000430F2007B0AAD280310E1
:10015800F20DFF3E031DAB280508C3397204850064
:100168000030F9000030F8000030F700C830F60021
:100178000130F2000030F3000030F4000030F500E8
:100188007208F6027308031C730FCB28CC28F702F9
:100198007408031C740FD128D228F8027508031CB0
:1001A800750FD728D828F902760A031DE528770A9B
:1001B800031DE528780A031DE528790A031DE528AB
:1001C800E628BC280130F2007208FB0704307B02E5
:1001D800031CEF28F0289D280800831203138601CA
:1001E8008316031306083F3986000A128A1127214D
:1001F8000A128A110A128A1115210A128A118B17FA
:1002080008008B1C082909290E2940308312031382
:1002180086068B1071088A00700E8300FE0E7E0E13
:1002280009008316031388010508C3398500831262
:1002380003130508C3398500080006345B344F34BE
:100248006634053400348316031301130B160800B3
:02400E00FB3F76
:00000001FF
