:020000040000FA
:060000000A128A11F62F1E
:100D500001348316031306083F3886000800831207
:100D6000031388018316031388010A128A11A92626
:100D70000A128A110800F1007108031DC02EC12E4D
:100D8000C62E8312031306083F39E42E3F30831228
:100D900003130605F0003F3070060319D02ED12E44
:100DA000D82E7B080319D52ED62ED82EFB01C12EA6
:100DB0003F300605F0003F307006031DE02EE12EA7
:100DC000E32EFB01FB0A3F300800F401F40A403037
:100DD000F5001F30F600F701F801F901FA010A12D7
:100DE0008A11AF260A128A1101300A128A11BB2613
:100DF0000A128A11F3003E307306031D002F012FE3
:100E00000C2F74080319052F072F0130082F00300D
:100E1000F40083120313880174080319102F112F93
:100E2000812F003078020830031977020318192F38
:100E30001A2F412F0130F5020030031CF603F60291
:100E4000750A031D272F760A031D272F282F772FBA
:100E50004030F5001F30F6000130F200770A322FE3
:100E60000310F20DFF3E031D302F7208831203138F
:100E7000080488000130F7070318F80A0030F80763
:100E8000772F00307802083003197702031C492FAE
:100E90004A2F772F00307802103003197702031899
:100EA000522F532F772F0130F5020030031CF60329
:100EB000F602750A031D602F760A031D602F612F4D
:100EC000772F4030F5001F30F6000130F200770830
:100ED000F83E013E6D2F0310F20DFF3E031D6B2FF8
:100EE0007208FF3A83120313080588003A2F103066
:100EF00077067804031D7D2F7E2FF42EF701F8016D
:100F0000F42E00307A020830031979020318892F71
:100F10008A2FB32F0130F5020030031CF603F602CE
:100F2000750A031D972F760A031D972F982FE92F17
:100F30004030F5001F30F6000130F2007908073C20
:100F4000013EA42F0310F20DFF3E031DA22F7208D5
:100F500083120313080488000130F9070318FA0A02
:100F60000030FA07E92F00307A02083003197902BD
:100F7000031CBB2FBC2FE92F00307A02103003195D
:100F800079020318C42FC52FE92F0130F502003074
:100F9000031CF603F602750A031DD22F760A031D01
:100FA000D22FD32FE92F4030F5001F30F60001304B
:100FB000F20079080F3C013EDF2F0310F20DFF3ED7
:100FC000031DDD2F7208FF3A831203130805880002
:100FD000AC2F103079067A04031DEF2FF02FF42E7A
:100FE000F901FA01F42E0A128A1100280A128A1154
:100FF000A8260A128A11FB0083010A128A11E52E23
:02400E00FB3F76
:00000001FF
