:020000040000FA
:100000000A128A11E82FFF1B0D2883137F1883170C
:100010000008840A0319FF0A080000308A00040857
:10002000840A82070034203444344F3457344E3429
:10003000203443344F3455344E34543445345234E0
:100040002034003443346F3475346E3474343A34AD
:0200500000347A
:100914000134831603138801091189100A128A11FC
:1009240041250A128A1108000A128A118B240A121C
:100934008A110A128A11AC240A128A11080030346E
:100944003034303430343034303430343034303483
:100954003034003483160313060807388600080869
:10096400F03988008113831203138815081588143D
:10097400081408007E088A007F0882000A128A117F
:10098400BC240A128A118000840A04087D06031913
:100994000034FF0A0319FE0AC02CF3007018D32C8C
:1009A400D72C831203130915DA2C831203130911AC
:1009B400730888008914A630F100F10BDF2C0000C5
:1009C4008312031389101B30F2009E30F100F10BE7
:1009D400E92CF20BE92C00000800F2000A128A113B
:1009E40098250A128A11F3007208031DFA2CFB2CB5
:1009F400FD2C7308112D730A0319012D022D092DE5
:100A04007B080319062D072D092DFB01FB2C730A06
:100A1400031D0D2D0E2D102DFB01FB0AFF300800C8
:100A2400F00176080A128A11CF240A128A11302D95
:100A3400F001F00A7508FF00740884000A128A1194
:100A440003200A128A110A128A11CF240A128A1167
:100A54000130F4070318F50A0030F507750883120E
:100A64000313FF00740884000A128A1103200A1277
:100A74008A11003A031D3F2D402D1A2D0800C33062
:100A8400F500CD30F400F40B452DF50B452DF001A8
:100A940033300A128A11CF240A128A111B30F5004E
:100AA4009E30F400F40B542DF50B542D0000F0018E
:100AB40033300A128A11CF240A128A11A630F400A4
:100AC400F40B622D0000F00133300A128A11CF2496
:100AD4000A128A116D2D6E2D0000F00138300A12B1
:100AE4008A11CF240A128A11A630F400F40B782D4F
:100AF4000000F00101300A128A11CF240A128A116F
:100B04000430F5003D30F400F40B862DF50B862DF2
:100B14008B2DF0010C300A128A11CF240A128A118B
:100B2400A630F400F40B942D000008008312031384
:100B340088110815881408146430F0000030F1009E
:100B4400FF30F0070318F10AFF30F107700A031DA4
:100B5400AF2D710A031DAF2DB02DA22D83120313E7
:100B64000618B52DB62DB82D0130432E8618BB2D91
:100B7400BC2DBE2D0230432E0619C12DC22DC42D0D
:100B84000330432E88150811881408146430F000CB
:100B94000030F100FF30F0070318F10AFF30F107CD
:100BA400700A031DD92D710A031DD92DDA2DCC2D00
:100BB400831203130618DF2DE02DE22D0430432E9B
:100BC4008618E52DE62DE82D0530432E0619EB2D6C
:100BD400EC2DEE2D0630432E8815081588100814C8
:100BE4006430F0000030F100FF30F0070318F10A20
:100BF400FF30F107700A031D032E710A031D032E33
:100C0400042EF62D831203130618092E0A2E0C2E19
:100C14000730432E86180F2E102E122E0830432E26
:100C24000619152E162E182E0930432E8815081570
:100C3400881408106430F0000030F100FF30F00731
:100C44000318F10AFF30F107700A031D2D2E710AF3
:100C5400031D2D2E2E2E202E831203130618332E41
:100C6400342E362E2A30432E8618392E3A2E3C2E18
:100C74000030432E06193F2E402E422E2330432EA1
:100C8400FF3008000A128A1196240A128A1183126C
:100C94000313A001A101273084003230F7000408B7
:100CA400F8000B30F9007708840083130008FA0079
:100CB400F70A780884007A088000F80AF90B552EA0
:100CC4000930A5000030A6000130A3000030A400C4
:100CD4000130F4008030F5008030F6000A128A11E9
:100CE40012250A128A111030F4008030F500C03049
:100CF400F6000A128A1112250A128A112730F4000A
:100D04000030F500C630F6000A128A1112250A12C4
:100D14008A1101300A128A11EF240A128A118312ED
:100D24000313A20003302206031D992E9A2EA82E27
:100D34002308240403199F2EA12E0130A22E003073
:100D4400F700F8017708A3007808A4002308240416
:100D54000319AD2EAE2E092F2203031DB22EB32E7E
:100D6400C92E0130F7002508273E84007708831335
:100D740080072508273E84003A300002031CC32E56
:100D8400C42EC92E2508273E84003030800002304E
:100D94002206031DCE2ECF2EDD2EFF30A50703180D
:100DA400A60AFF30A607A61FD82ED92EDD2E09309D
:100DB400A5000030A6000130A0070318A10A0030E6
:100DC400A107D1302006073003192106031DEB2E9D
:100DD400EC2EFC2EA001A1012508273EF4000030D2
:100DE400F5002508C63EF6000A128A1112250A12D9
:100DF4008A11802E0E30F4008030F5002508C63E9E
:100E0400F6000A128A1112250A128A11802E013064
:100E1400B002303030020318102F112F152F01307B
:100E2400AF023930B00030302F0203181A2F1B2FB5
:100E3400212F0130AE023930AF003930B0003030EC
:100E44002E020318262F272F2F2F0130AD02393001
:100E5400AE003930AF003930B00030302D02031805
:100E6400342F352F3F2F0130AC023930AD003930EB
:100E7400AE003930AF003930B00030302C020318E6
:100E8400442F452F512F0130AB023930AC0039309B
:100E9400AD003930AE003930AF003930B0003030F9
:100EA4002B020318562F572F652F0130AA02393011
:100EB400AB003930AC003930AD003930AE003930D8
:100EC400AF003930B00030302A0203186A2F6B2F7C
:100ED4007B2F0130A9023930AA003930AB003930F8
:100EE400AC003930AD003930AE003930AF003930A4
:100EF400B000303029020318802F812F932F013046
:100F0400A8023930A9003930AA003930AB00393091
:100F1400AC003930AD003930AE003930AF00393073
:100F2400B000303028020318982F992FAD2F0130CC
:100F3400A7023930A8003930A9003930AA00393065
:100F4400AB003930AC003930AD003930AE00393047
:100F5400AF003930B000303027020318B22FB32F5E
:100F6400D92F3030A7003030A8003030A9003030FD
:100F7400AA003030AB003030AC003030AD0030303F
:100F8400AE003030AF003030B00023082404031921
:100F9400CC2FCE2F0130CF2F0030F700F801770887
:100FA400A3007808A4000930A5000030A60027306B
:100FB400F4000030F500C630F6000A128A1112253A
:100FC4000A128A11802E0A128A11002883133D30D6
:100FD400FD000430FE00A130FF00323084000A120C
:100FE4008A11C0240A128A110A128A118A240A1246
:0C0FF4008A11FB0083010A128A11442EAE
:02400E00FB3F76
:00000001FF
