:020000040000FA
:060000000A128A11EE2F26
:100892000A128A114F240A128A11080083160313BE
:1008A20088010508C3398500831203130508C3397B
:1008B200850008003F3406345B344F3466346D34AF
:1008C2007D3407347F346F343F343F343F343F3418
:1008D20001347E088A007F0882000A128A116A2483
:1008E2000A128A118000840A04087D060319003462
:1008F200FF0A0319FE0A6E2CF10064008316031727
:100902008C18842C852C7E2C7108831203178D0081
:100912003F30F0007008831603178C050C14831205
:1009220003170C080800F601F701721C992C9A2C87
:10093200A02C7408F6070318F70A7508F7070130A8
:100942000310F40DF50DFF3E031DA12C0130031021
:10095200F30CF20CFF3E031DA82C72087304031D56
:10096200B32CB42C962C7708F3007608F20008001A
:10097200F1007108031DBE2CBF2CC42C831203137B
:1009820006083F39E22C3F30831203130605F000BC
:100992003F3070060319CE2CCF2CD62C51080319E8
:1009A200D32CD42CD62CD101BF2C3F300605F0001D
:1009B2003F307006031DDE2CDF2CE12CD101D10A61
:1009C2003F30080083120313A200831603178C180A
:1009D200EB2CEC2CE62C8312031322088312031750
:1009E2008D00831203132008831203178C003F30FB
:1009F20083120313A1002108831603178C058312A7
:100A0200031303108B1F062D072D082D03148B13C0
:100A1200831603170C1555308D00AA308D008C14E7
:100A22000C1183120313031C172D182D192D8B176C
:100A320008007808790403191F2D202D4F2DFD0180
:100A4200FD0A2E2D01300310F80DF90DFF3E031D96
:100A5200242D0130FC007C08FD07F91F312D322DB9
:100A6200232D79087B02031D382D78087A02031C96
:100A72003B2D3C2D422D7808FA027908031CFB031A
:100A8200FB0201300310F90CF80CFF3E031D432D4D
:100A92000130FD02031D4E2D4F2D322D7B08F90032
:100AA2007A08F8000800F501F601700871040319CC
:100AB2005B2D5C2D932DF701F70A6A2D013003108F
:100AC200F00DF10DFF3E031D602D0130F40074089E
:100AD200F707F11F6D2D6E2D5F2D01300310F50DFF
:100AE200F60DFF3E031D6F2D71087302031D7B2D52
:100AF20070087202031C7E2D7F2D862D7008F20273
:100B02007108031CF303F302751401300310F10C96
:100B1200F00CFF3E031D872D0130F702031D922DBD
:100B2200932D6E2D7608F1007508F0000800F8008C
:100B3200F90179087807F00070088400831300082F
:100B42008312031388000430F000790AAA2D0310DF
:100B5200F00DFF3E031DA82D0508C3397004850062
:100B62000030F7000030F6000130F5009030F4005C
:100B72000130F0000030F1000030F2000030F300EC
:100B82007008F4027108031C710FC82DC92DF502FB
:100B92007208031C720FCE2DCF2DF6027308031CB0
:100BA200730FD42DD52DF702740A031DE22D750A99
:100BB200031DE22D760A031DE22D770A031DE22DA5
:100BC200E32DB92D0130F0007008F90704307902E5
:100BD200031CEC2DED2D9A2D0800831203135008EF
:100BE200BC004F08BB004E08BA004D08B9002F30B8
:100BF20084004330A3000408A4000A30A50023089F
:100C0200840083130008A600A30A2408840026088F
:100C12008000A40AA50B002EBD01BE0104300A12F9
:100C22008A117D240A128A11013A0319192E1A2EE9
:100C3200482E83120313A00100300A128A11E32402
:100C42000A128A1183120313A00101300A128A11B7
:100C5200E3240A128A1183120313A00102300A123A
:100C62008A11E3240A128A1183120313A0010330AA
:100C72000A128A11E3240A128A1183120313A001B1
:100C8200A00A04300A128A11E3240A128A110330DC
:100C92000A128A117D240A128A1183120313A300F5
:100CA200A4012308F2002408F300E830F400033022
:100CB200F5000A128A1194240A128A117208831208
:100CC2000313A5007308A60002300A128A117D24BC
:100CD2000A128A1183120313A700A8012708F2003F
:100CE2002808F3006430F4000030F5000A128A117B
:100CF20094240A128A117208831203132507A90089
:100D020073080318730A2607AA0001300A128A110F
:100D12007D240A128A1183120313AB00AC012B0843
:100D2200F2002C08F3000A30F4000030F5000A1239
:100D32008A1194240A128A11720883120313290752
:100D4200AD0073080318730A2A07AE0000300A12B6
:100D52008A117D240A128A11831203132D07C100FE
:100D62000030031801302E07C2000A128A114924EA
:100D72000A128A1101300A128A11B9240A128A113E
:100D820083120313C00000300A128A11B9240A1216
:100D92008A1183120313BF003E304006031DD22E78
:100DA200D32ED92E0130C1070318C20A0030C20760
:100DB2003D304006031DDE2EDF2E5B2F0A30F80089
:100DC2000030F9004208FB004108FA000A128A11B9
:100DD2001A250A128A11780883120313A000003020
:100DE2000A128A11E3240A128A110A30F80000302A
:100DF200F9000A30F0000030F100831203134208B8
:100E0200F3004108F2000A128A1154250A128A11CB
:100E12007108FB007008FA000A128A111A250A12D8
:100E22008A11780883120313A00001300A128A1172
:100E3200E3240A128A110A30F8000030F900643003
:100E4200F0000030F100831203134208F30041085E
:100E5200F2000A128A1154250A128A117108FB0043
:100E62007008FA000A128A111A250A128A117808E1
:100E720083120313A00002300A128A11E3240A1219
:100E82008A11E830F0000330F100831203134208A4
:100E9200F3004108F2000A128A1154250A128A113B
:100EA200700883120313A00003300A128A11E3248C
:100EB2000A128A113E30831203133F06031D622F6A
:100EC200632F762F0130BD070318BE0A0030BE071C
:100ED20046303D06031D712F3E03031D712F722FF5
:100EE200762FBD01BE01C101C2010A30F8000030F7
:100EF200F9004208FB004108FA000A128A111A2579
:100F02000A128A1178082F3E840083130008831284
:100F12000313BC000A30F0000030F1004208FB006D
:100F22004108FA006430F8000030F9000A128A1110
:100F32001A250A128A117908F3007808F2000A12B7
:100F42008A1154250A128A1170082F3E84008313D5
:100F5200000883120313BB006430F0000030F1007C
:100F62004208FB004108FA00E830F8000330F900BB
:100F72000A128A111A250A128A117908F3007808CE
:100F8200F2000A128A1154250A128A1170082F3EA1
:100F920084008313000883120313BA00E830F000C0
:100FA2000330F1004208F3004108F2000A128A11EC
:100FB20054250A128A1170082F3E840083130008F8
:100FC20083120313B90039300A128A1198250A12C2
:100FD2008A11BB2E0A128A11002883135230FD0097
:100FE2000430FE005B30FF00433084000A128A1195
:0E0FF2006E240A128A1183010A128A11EE2D52
:02400E00FB3F76
:00000001FF
