:020000040000FA
:060000000A128A110C280F
:10000800FE00030EF1000A08F2000A128A115A28AB
:100018000A128A110F28F90183010A128A118B2802
:1000280083120313A501A6012008210403191D2822
:100038001E285528A401A40A2C2801300310A00D5D
:10004800A10DFF3E031D22280130F7007708A40701
:10005800A11F2F283028212801300310A50DA60D37
:10006800FF3E031D312821082302031D3D282008D7
:100078002202031C4028412848282008A2022108FF
:10008800031CA303A302251401300310A10CA00C28
:10009800FF3E031D49280130A402031D542855289A
:1000A80030282608A1002508A000080083120313A1
:1000B8008C1C5F286028842801080F3E810078087E
:1000C80079020318682869286B28081478287808A2
:1000D8007902031C70287128782866307902031881
:1000E80076287728782808100130F0007008F9077A
:1000F80067307906031D812882288328F9018C102E
:1001080072088A00710E8300FE0E7E0E09000A1224
:100118008A11AE200A128A110A3083120313A00032
:100128000030A1000A128A11C1200A128A1174082B
:1001380083120313A3007308A2000A128A11142061
:100148000A128A11831203132008F80090280A1251
:100158008A110C288312031388018316031388015C
:100168000B178B170A128A11DD200A128A110A123C
:100178008A11D3200A128A110800831203131F154B
:100188001F19C728C828C4281E08F6008316031399
:100198001E08F5007608F4007508F30008008316B9
:1001A80003138112811506308312031381008B1605
:1001B8000800831603139F17831203131F140800E4
:02400E00FB3F76
:00000001FF
