:020000040000FA
:060000000A128A110C280F
:10000800FE00030EF0000A08F1000A168A118B2D73
:100018000A128A110F288317AE30FD001230FE0035
:10002800BD30FF00903084000A128A11F0270A12AE
:100038008A118313E130FD001230FE00DB30FF002F
:10004800C33084000A128A11F0270A128A115B3021
:10005800FD001130FE009930FF00563084000A126E
:100068008A11F0270A128A11A0308400C3300A16B8
:100078008A11AB210A128A114230840056300A16BE
:100088008A11AB210A128A11F901FA01FB018301D5
:100098000A128A114F2883160317C901C90AC50114
:1000A800831603135E0883160317BE008316031313
:1000B8005F0883160317BF008316031360088316AF
:1000C8000317C000C601C201BD01B8010A168A1192
:1000D800D7240A128A11831603173D08031D7528B1
:1000E80076288828A430F5008930F60000300A16F2
:1000F8008A11DB230A128A11013083120313BF000D
:100108003F0883160317BD074208031D8C288D2856
:10011800A028460883120313A400BE300A128A15C9
:10012800CC210A128A11013083120313BF003F0841
:1001380083160317C207A7280A304206031DA528FD
:10014800A628A728C2010A3083120313A000003092
:10015800A1000A168A110C220A128A117308831246
:100168000313A3007208A2000A168A1114260A12A1
:100178008A1183120313200883160317C6006430FC
:100188004602031CC828C928CB286330C6000130A2
:100198000A128A155A230A128A1183160317C800ED
:1001A8002C30B9000130BA00FF30B9070318BA0A79
:1001B800FF30BA07390A031DE5283A0A031DE52866
:1001C800E628D8283E304806031DEB28EC280F29DE
:1001D8004903031DF028F1280F29A930F2008930BE
:1001E800F300BE300A168A113A230A128A118316BE
:1001F8000317460883120313A400BE300A128A1597
:10020800CC210A128A11013083120313BF003F0860
:1002180083160317C2073D304806031D1429152904
:100228004E290630450203181A291B294E2949036D
:10023800031D1F2920294E29450883120313BF00D7
:100248003F07C33E840083130008F200840A0008B5
:100258008403F300BE300A168A113A230A128A115F
:10026800013083120313BF003F0883160317C50725
:10027800460883120313A400BE300A128A15CC2143
:100288000A128A11013083120313BF003F08831634
:100298000317C2073B304806031D532954298429F4
:1002A800450803195829592984290130C5024508E8
:1002B80083120313BF003F07C33E84008313000863
:1002C800F200840A00088403F300BE300A168A117B
:1002D8003A230A128A118316031746088312031356
:1002E800A400BE300A128A15CC210A128A110130E4
:1002F80083120313BF003F0883160317C207F42CA9
:1003080037304806031989298A2990292F30480649
:10031800031D8F299029C4294903031D9429952970
:10032800C4290A168A11FB210A128A116F30F600B5
:100338008830F7008030F8000A168A1108240A125B
:100348008A11F201C6300A168A11F9220A128A1194
:10035800F2010F300A168A11F9220A128A11A53001
:1003680083120313BF00BF0BB729BA2902308316C3
:100378000317C9001030C700831203131215F42C99
:1003880003304906031DC929CA29AF2B1F30480667
:10039800031DCF29D029AF2B942B0A168A11FB21D4
:1003A8000A128A114230F6008930F7008030F800CE
:1003B8000A168A1108240A128A1140308316031774
:1003C800C7000530C900F42C0A168A11FB210A124D
:1003D8008A11503083160317C7000630C900F42C61
:1003E8000A168A11FB210A128A1146308312031356
:1003F800D50055080319012A022A5B2BA030F30007
:100408008830F4000A168A115F230A128A11003014
:10041800F3008830F4000A168A115F230A128A1141
:10042800831203134E0A031D1D2A4F0A031D1D2A9A
:100438001E2A282A8830F3008930F4000A168A1107
:100448005F230A128A11582B83160317C101172B31
:1004580083160317C301C4014408803AFF008030A3
:100468007F02031D392A0A304302031C3C2A3D2A15
:100478003E2A612A0A30F2008316031741080A1639
:100488008A116C220A128A11053E83160317BC00D2
:100498004308AE3E840043083C070A168A11B0237D
:1004A8000A128A1183178000013083160317C307C5
:1004B8000318C40A0030C407302AFC30F60088301C
:1004C800F7008030F8000A168A1108240A128A11E7
:1004D8008530F3008930F4000A168A115F230A1266
:1004E8008A11831603174108303E0A168A11F02133
:1004F8000A128A118130F3008930F4000A168A1131
:100508005F230A128A11831603172E080A168A1106
:10051800F0210A128A11831603172F080A168A1166
:10052800F0210A128A113A300A168A11F0210A12A9
:100538008A118316031730080A168A11F0210A1245
:100548008A118316031731080A168A11F0210A1234
:100558008A113A300A168A11F0210A128A118C304F
:1005680083120313AB0086300A168A1157220A1227
:100578008A118316031732080A168A11F0210A1203
:100588008A118316031733080A168A11F0210A12F2
:100598008A118030F3008930F4000A168A115F232B
:1005A8000A128A118316031734080A168A11F021D1
:1005B8000A128A118316031735080A168A11F021C0
:1005C8000A128A117E30F3008930F4000A168A1163
:1005D8005F230A128A118316031736080A168A112E
:1005E800F0210A128A118316031737080A168A118E
:1005F800F0210A128A1100300A168A11F0210A1213
:100608008A118D3083120313AB0086300A168A11C3
:1006180057220A128A11013083120313BF003F08C0
:1006280083160317C107831203134F08803A803CCF
:10063800031D222B4E08831603174102031C252B8A
:10064800262B2C2A0A168A11FB210A128A11ED3050
:10065800F6008830F7008230F8000A168A1108245C
:100668000A128A114F30F6008930F700C030F800BE
:100678000A168A1108240A128A114D3083120313AC
:10068800C1001930C0004F30BF00BF0B492BC00B51
:10069800492BC10B492B2430F3008830F4000A168B
:1006A8008A115F230A128A1183120313D5010A30B3
:1006B8000A168A11F0210A128A110A300A168A11BA
:1006C800F0210A128A119030F3000130F4000A1662
:1006D8008A115F230A128A11033083160317C9008F
:1006E8003030C700F42C0A168A11FB210A128A112D
:1006F8000A168A111E220A128A11803083160317DD
:10070800C7000830C900F42C0A168A11FB210A1206
:100718008A11603083160317C7000730C900F42C0C
:100728003B0883120313BF00C0014008003A0319B5
:100738009E2BF42C3F08003A0319D129013A0319DA
:10074800E829033A0319F429013A0319772B073AE0
:100758000319882BF42C053049060319B42BB52B43
:10076800BB2B08304906031DBA2BBB2B052C1230B6
:100778004806031DC02BC12B052C08304906031D54
:10078800C62BC72BFF2B0A168A11FB210A128A11C6
:100798006830F6008930F7008230F8000A168A11AE
:1007A80008240A128A114F30F6008930F700C03049
:1007B800F8000A168A1108240A128A114D30831289
:1007C8000313C1001930C0004F30BF00BF0BEA2B24
:1007D800C00BEA2BC10BEA2B0A168A11FB210A125D
:1007E8008A110A168A1131220A128A1103308316D5
:1007F8000317C900F42C0A168A11FB210A128A1160
:10080800FA2B11304806031D0A2C0B2C192C033027
:100818004906031D102C112C192CC901C90A0A16E6
:100828008A11FB210A128A11F42CF42C831603175F
:10083800460883120313AD00BE300A168A11F92642
:100848000A128A11172D0A168A11FB210A128A1117
:1008580083160317C901C90A831203131211F2017F
:100868000C300A168A11F9220A128A11A53083124D
:100878000313BF00BF0B3E2C412C172D03308316EA
:100888000317C9003030C700831203131211F20195
:100898000C300A168A11F9220A128A11A53083121D
:1008A8000313BF00BF0B562C592C6F288316031750
:1008B800470883120313AD008316031748080A126A
:1008C8008A1560260A128A1183120313BF00C00119
:1008D8004008003A0319712C172D3F080A3A0319EA
:1008E800272C013A0319422C172D831603174708A2
:1008F80083120313AD008316031748080A128A11DE
:100908003B270A128A1183160317BB00172D83167B
:100918000317470883120313AD008316031748080B
:100928000A128A15C9230A128A11172D831603176A
:1009380047080A168A119E240A128A110C3A031DC6
:10094800A62CA72C172D0A168A11FB210A128A1128
:10095800033083160317C9003030C7006F28B03042
:10096800F6008830F7008130F8000A168A1108244A
:100978000A128A1183160317470883120313AD005E
:100988008316031748080A128A111F250A128A11AA
:10099800172D83160317470883120313AD00831618
:1009A800031748080A128A15DB240A128A110C3A1E
:1009B800031DDF2CE02C172D0A168A11FB210A12C1
:1009C8008A11F2010C300A168A11F9220A128A11C8
:1009D800A53083120313BF00BF0BF02CF32CAC2CF3
:1009E80083160317490883120313BF00C001400888
:1009F800003A0319002D172D3F08013A03191A2C44
:100A0800033A03195A2C013A0319792C063A0319A7
:100A18008B2C033A03199A2C013A0319CD2C0F3A5F
:100A28000319B32C172D203083160317C7006F281E
:100A38000A128A110C2883120313B9000F30831687
:100A48000313350583120313AE000A30F200831630
:100A5800031334080F390A168A116C220A128A11F4
:100A6800831203132E07B6000F30831603133705BE
:100A780083120313AE000A30F200831603133608FC
:100A88000F390A168A116C220A128A11831203136B
:100A98002E07B7000F30831603133905831203138B
:100AA800AE000A30F2008316031338080F390A160D
:100AB8008A116C220A128A11831203132E07B800B6
:100AC80037303906031D692D6A2D742D0330510204
:100AD80003186F2D702D742D0130AE002E08D1072C
:100AE8002F303906031D792D7A2D812D51080319D0
:100AF8007E2D7F2D812D0130D1025108031D852DBA
:100B0800862DE02D3E303906031D8B2D8C2D972D1B
:100B18000130AE002E08B60718303602031C952D9A
:100B2800962D972DB6013D303906031D9C2D9D2D20
:100B38009F2D0130B6020A30F2000030F30036086B
:100B4800AE00AF012E08F4002F08F5000A168A112E
:100B5800A7270A128A11720883120313B0007308B8
:100B6800B1000A30F2000030F3003608B200B301D9
:100B78003208F4003308F5000A128A15F1220A1225
:100B88008A11720883120313B40003300310B40DE2
:100B9800FF3E031DCA2D0310340D3004B50079083B
:100BA800C0393504F9007908F30002300A168A11B1
:100BB8009F220A128A11C42E5103031DE42DE52D2C
:100BC8003F2E3E303906031DEA2DEB2DF62D013060
:100BD800AE002E08B7073C303702031CF42DF52D64
:100BE800F62DB7013D303906031DFB2DFC2DFE2DDA
:100BF8000130B7020A30F2000030F3003708AE00C7
:100C0800AF012E08F4002F08F5000A168A11A7274D
:100C18000A128A11720883120313B0007308B10014
:100C28000A30F2000030F3003708B200B30132088E
:100C3800F4003308F5000A128A15F1220A128A1103
:100C4800720883120313B40003300310B40DFF3E7F
:100C5800031D292E0310340D3004B5007A0880399D
:100C68003504FA007A08F30001300A168A119F2227
:100C78000A128A11C42E02305106031D442E452E35
:100C88009F2E3E303906031D4A2E4B2E562E01301C
:100C9800AE002E08B8073C303802031C542E552EDF
:100CA800562EB8013D303906031D5B2E5C2E5E2E94
:100CB8000130B8020A30F2000030F3003808AE0004
:100CC800AF012E08F4002F08F5000A168A11A7278D
:100CD8000A128A11720883120313B0007308B10054
:100CE8000A30F2000030F3003808B200B3013208CD
:100CF800F4003308F5000A128A15F1220A128A1143
:100D0800720883120313B40003300310B40DFF3EBE
:100D1800031D892E0310340D3004B5007B0880397B
:100D28003504FB007B08F30000300A168A119F2265
:100D38000A128A11C42EC42E8530F6008930F700B5
:100D4800C330F8000A168A1108240A128A11D92E0B
:100D58008530F6008930F700C630F8000A168A1187
:100D680008240A128A11D92E8530F6008930F70036
:100D7800C930F8000A168A1108240A128A11D92ED5
:100D8800831203135108AE00AF012F08003A03196C
:100D9800CE2ED92E2E08003A0319A02E013A031997
:100DA800AC2E033A0319B82ED92E0A168A115A26E0
:100DB8000A128A11C33083120313AB00831603137C
:100DC80034080A168A1157220A128A11C43083126B
:100DD8000313AB008316031335080A168A1157222A
:100DE8000A128A11C53083120313AB003A300A166F
:100DF8008A1157220A128A11C63083120313AB00D4
:100E08008316031336080A168A1157220A128A1102
:100E1800C73083120313AB008316031337080A166F
:100E28008A1157220A128A11C83083120313AB00A1
:100E38003A300A168A1157220A128A11C9308312C7
:100E48000313AB008316031338080A168A115722B6
:100E58000A128A11CA3083120313AB0083160313D4
:100E680039080A168A1157220A128A1108008312B1
:100E78000313B00030302D06031D432F442F4A2F93
:100E8800D3010A168A11FB210A128A112F30831204
:100E980003133006031D512F522F612F04305302C4
:100EA8000318572F582F612F0130AE002E08D30793
:100EB8000A168A11FB210A128A113730831203138A
:100EC8003006031D682F692F752F530803196D2FDE
:100ED8006E2F752F0130D3020A168A11FB210A12D0
:100EE8008A11043083120313530203187C2F7D2FB9
:100EF800B02F8030AB002A300A168A1157220A1206
:100F08008A11831203135308AE002E07CF3E8400C4
:100F180083130008F600840A00088403F70082306F
:100F2800F8000A168A1108240A128A118312031378
:100F38005308AE002E07D13E840083130008F60044
:100F4800840A00088403F700C230F8000A168A11E0
:100F580008240A128A11E82F04305306031DB52FFE
:100F6800B62FE82F5308AE002E07CD3E840083131A
:100F78000008F600840A00088403F7008230F800AD
:100F88000A168A1108240A128A11831203135308B5
:100F9800AE002E07CF3E840083130008F600840AB3
:100FA80000088403F700C230F8000A168A110824E2
:100FB8000A128A11C03083120313AB002A300A16B2
:100FC8008A1157220A128A11831203135308080040
:100FD8007E088A007F0882000A128A11EC270A120A
:100FE8008A118000840A04087D0603190034FF0A68
:060FF8000319FE0AF02FB0
:1010000053344C3420344E346F3420342034203464
:1010100020342034543449344D3445342034203481
:101020002034203420344534563445344E3454343E
:101030002034203420342034203453345034453488
:10104000453444340A3400342034233424342034E6
:101050004C346F3467347334203444346F34773411
:101060006E346C346F3461346434653464342034E9
:10107000243423340A340034523465342D34453456
:101080006E3474346534723420344E3465347734BD
:101090002034503457344434003420342034543411
:1010A00049344D3445342034203420342034453400
:1010B000763420342034533450340034573461347F
:1010C00069347434203466346F3472342E342E34E0
:1010D0002034203420347334653463340034453490
:1010E0006E34743465347234203450346134733463
:1010F000733477346F347234643420343A340034C7
:1011000059346F347534203461347234653420348A
:1011100062346C346F3463346B346534643400345B
:10112000503461347334733477346F3472346434CC
:1011300020346334683461346E3467346534003489
:1011400054346834653420344C346F346734733429
:10115000203441347234653420343A340A34003453
:101160004334683461346E34673465342034743405
:10117000683465342034543469346D346534003453
:1011800045346E3474346534723420344E346534EE
:1011900077342034503457344434203400342034ED
:1011A0005334753463346334653473347334663460
:1011B00075346C346C3479342034003457347234E0
:1011C0006F346E3467342034503461347334733484
:1011D00077346F347234643400344C346F34673491
:1011E0007334203444346F3477346E346C346F3459
:1011F000613464342034003444346F3477346E34D2
:101200006C346F346134643469346E346734203440
:101210002E342E34003441347434743465346D34D7
:101220007034743473342034523465346D34203463
:10123000003420344C346F346734733420344334F6
:101240006C3465346134723465346434003443344E
:10125000683461346E3467346534203470346134FA
:101260007334733477346434003444346F347734F3
:101270006E346C346F346134643420346C346F34C5
:10128000673400342034203420344C346F346734D5
:1012900020343A3420342034203420340034733461
:1012A000753463346334653473347334663475343D
:1012B0006C346C347934003420344634613469340D
:1012C0006C346534643420342134213420340034C7
:1012D000743469346D346534203463346834613473
:1012E0006E3467346534003443346C3465346134AF
:1012F000723420346C346F3467340034203420343A
:10130000203420342034203420342034203400345D
:1013100020344E346F3420344C346F34673473349B
:1013200020340034533465347434203474346934D4
:101330006D34653400345634693465347734203480
:101340006C346F34673400343134303431343034F9
:1013500000344334203400344734313400344734CB
:1013600032340034473433340034473434340034B6
:0C13700047344E3400344734523400340B
:10137E00831603131419C429C529BF2911081F394F
:10138E00031DCA29CB29BF29080083120313A70006
:10139E000A168A115A260A128A15B430F200003043
:1013AE00F3000630F4000030F500A0300A168A1162
:1013BE00CF250A128A15831203132708F200013073
:1013CE00F3000230F4000030F500A6300A168A1140
:1013DE00CF250A128A150A30F2000030F30083126C
:1013EE0003132408A500A6012508F4002608F5001D
:1013FE000A128A15F1220A128A157208303E8316D5
:10140E000313A8000A30F2000030F3008312031316
:10141E002408A500A6012508F4002608F5000A16E2
:10142E008A11A7270A128A157208303E83160313F3
:10143E00A900AA010A168A11A3260A128A15080003
:10144E000A168A115A260A128A15C13083120313FC
:10145E00AB008316031334080A168A1157220A1298
:10146E008A15C23083120313AB008316031335089B
:10147E000A168A1157220A128A15C33083120313D1
:10148E00AB003A300A168A1157220A128A15C43056
:10149E0083120313AB008316031336080A168A1140
:1014AE0057220A128A15C53083120313AB00831616
:1014BE00031337080A168A1157220A128A15C630E4
:1014CE0083120313AB003A300A168A1157220A12FE
:1014DE008A15C73083120313AB0083160313380823
:1014EE000A168A1157220A128A15C830831203135C
:1014FE00AB008316031339080A168A1157220A12F3
:10150E008A1508000030F6000030F5000030F400B7
:10151E000030F30083120313230822042104200455
:10152E0003199A2A9B2AE82AF701F70AAB2A0130F7
:10153E00F2000310A00DA10DA20DA30DF20BA02A17
:10154E000130F2007208F707A31FAE2AAF2A9E2AB7
:10155E000130F2000310F30DF40DF50DF60DF20B44
:10156E00B12A23082702031DC62A22082602031DBC
:10157E00C62A21082502031DC62A20082402031CA0
:10158E00C92ACA2AD92A2008A4022108031C210F1D
:10159E00A5022208031C220FA6022308031C230FF8
:1015AE00A702731401300310A30CA20CA10CA00C03
:1015BE00FF3E031DDA2A0130F702031DE72AE82A4F
:1015CE00AF2A7608A3007508A2007408A10073085C
:1015DE00A000080083120313A101F31FF72AF82AB3
:1015EE00FF2AF209F309F20A0319F30AA101A10A6B
:1015FE00F51F022B032B0C2BF409F509F40A031922
:10160E00F50A0130F6007608A106A201A3017208C0
:10161E0073040319132B142B4B2BA001A00A222B9E
:10162E0001300310F20DF30DFF3E031D182B013098
:10163E00F6007608A007F31F252B262B172B01305B
:10164E000310A20DA30DFF3E031D272B7308750279
:10165E00031D332B72087402031C362B372B3E2BC3
:10166E007208F4027308031CF503F502221401300C
:10167E000310F30CF20CFF3E031D3F2B0130A002B2
:10168E00031D4A2B4B2B262B210803194F2B502BB6
:10169E00552BA209A309A20A0319A30A2308F300D2
:1016AE002208F2000800F3007308031D5F2B602B65
:1016BE00652B8312031306083F39C82B01308312A2
:1016CE000313C4070318C50A0030C5073F300605CB
:1016DE00F20037307206031D752B762B892B4508C9
:1016EE00803AFF0080307F02031D7F2B333044028F
:1016FE00031C822B832B892B83120313C401C50178
:10170E001130C82B3F30831203130605F2002F3021
:10171E007206031D932B942BA72B4508803AFF00CE
:10172E0080307F02031D9D2B1F304402031CA02B13
:10173E00A12BA72B83120313C401C5011230C82B92
:10174E003F30831203130605F2003F307206031971
:10175E00B12BB22BBB2B58080319B62BB72BBB2BB7
:10176E00D801C401C501602B3F300605F2003F30A1
:10177E007206031DC32BC42BC72BD801D80AC72B47
:10178E003F30080083120313BC004E0A031DD32BF7
:10179E004F0A031DD32BD42BE02B8830F600893053
:1017AE00F700C530F8000A168A1108240A128A15A5
:1017BE00DA2C40302D06031DE52BE62BE72BD2014C
:1017CE0037303C06031DEC2BED2B072C4E08FF3E4D
:1017DE00AE004F080318013EFF3EAF002F08803ABF
:1017EE00803C031DFC2B2E0852020318FF2B002CED
:1017FE00072C013083120313AE002E08D207162CCD
:10180E002F30831203133C06031D0E2C0F2C162CA7
:10181E0052080319132C142C162C0130D202BD01C0
:10182E00BE010A30F2008312031352080A168A11FF
:10183E006C220A128A15053E83120313BB003D0863
:10184E00303E84003D083B070A168A11B0230A1267
:10185E008A1583138000013083120313BD0703180A
:10186E00BE0A0030BE073E08803AFF0080307F027D
:10187E00031D432C0A303D02031C462C472C182C0A
:10188E00C03083120313AB000A30F2000030F300B5
:10189E005208AE00AF012E08F4002F08F5000A160C
:1018AE008A11A7270A128A157208303E0A168A1163
:1018BE0057220A128A15C23083120313AB00300866
:1018CE000A168A1157220A128A15C330831203137D
:1018DE00AB0031080A168A1157220A128A15C43033
:1018EE0083120313AB003A300A168A1157220A12DA
:1018FE008A15C53083120313AB0032080A168A11FB
:10190E0057220A128A15C63083120313AB0033080E
:10191E000A168A1157220A128A15C7308312031328
:10192E00AB003A300A168A1157220A128A15C830AD
:10193E0083120313AB0034080A168A1157220A12B7
:10194E008A15C93083120313AB0035080A168A11A3
:10195E0057220A128A15CB3083120313AB003608B6
:10196E000A168A1157220A128A15CC3083120313D3
:10197E00AB0037080A168A1157220A128A15CE3082
:10198E0083120313AB0038080A168A1157220A1263
:10199E008A15CF3083120313AB0039080A168A1149
:1019AE0057220A128A15080083120313B10007305A
:1019BE002D06031DE32CE42CEC2CCA01CB010130C7
:1019CE00C8000030C900C601C7014B08803AFF00AD
:1019DE0080307F02031DF52C04304A020318F82CC8
:1019EE00F92C042DC030F6008830F7008030F80056
:1019FE000A168A1108240A128A15831203134B0839
:101A0E00803AFF0080307F02031D0F2D04304A0202
:101A1E000318122D132D332D831203134808490476
:101A2E0003191A2D1B2D332DC801C901F201C63021
:101A3E000A168A11F9220A128A15F2010F300A16B5
:101A4E008A11F9220A128A15A53083120313AE00E9
:101A5E00AE0B2F2D322D6D2D831203134B08803AB2
:101A6E00FF0080307F02031D3E2D04304A02031C0E
:101A7E00412D422D6D2D8312031348084904031D79
:101A8E00492D4A2D6D2D0130C8000030C9000A16AF
:101A9E008A11FB210A128A153C30F6008830F700B5
:101AAE008030F8000A168A1108240A128A15F201EB
:101ABE00C6300A168A11F9220A128A15F2010F305F
:101ACE000A168A11F9220A128A152B2D3730831223
:101ADE0003133106031D742D752D932D4A08AB3E4D
:101AEE0084003130831380004608C63EAB002A3096
:101AFE000A168A1157220A128A150130831203130D
:101B0E00C6070318C70A0030C7070130CA070318F3
:101B1E00CB0A0030CB07A92D2F303106031D982D8F
:101B2E00992DA92D4A08AB3E8400303083138000D6
:101B3E004608C63EAB002A300A168A1157220A12F0
:101B4E008A15842D08304A064B04031DAF2DB02D87
:101B5E005E2EAF30F2000430F3000030F400AB30F4
:101B6E000A168A114D250A128A1572087304031D6E
:101B7E00C12DC22D262E83120313B201B30183127F
:101B8E0003133208AB3E840083130008F3003208BF
:101B9E000A168A1181220A128A1501308312031342
:101BAE00B2070318B30A0030B3073308803AFF00B8
:101BBE0080307F02031DE52D04303202031CE82D18
:101BCE00E92DC62D0A168A11FB210A128A15F20179
:101BDE000C300A168A11F9220A128A15A5308312C0
:101BEE000313AE00AE0BF92DFC2D9030F6008830AD
:101BFE00F7008130F8000A168A1108240A128A1595
:101C0E00CF30F6008830F700C130F8000A168A117E
:101C1E0008240A128A154D3083120313B0001930AE
:101C2E00AF004F30AE00AE0B1A2EAF0B1A2EB00B0C
:101C3E001A2E83120313CA01CB010C305F2E0A1623
:101C4E008A11FB210A128A15F2010C300A168A112A
:101C5E00F9220A128A15A53083120313AE00AE0BB9
:101C6E00362E392E9030F6008830F7008130F8008D
:101C7E000A168A1108240A128A155C30F600893079
:101C8E00F700C130F8000A168A1108240A128A15C4
:101C9E004D3083120313B0001930AF004F30AE0039
:101CAE00AE0B572EAF0B572EB00B572E242EFF30E8
:101CBE00080083120313B10010302D06031D682E89
:101CCE00692E782E0330D90083160313BF01C0018D
:101CDE00C101C20183120313D401FF30B1000330DE
:101CEE00DA0037303106031D7D2E7E2E9B2E0430FA
:101CFE0054020318832E842E9B2E5408BF3E84005C
:101D0E003130831380000130AE002E08D407540802
:101D1E00C63EAB002A300A168A1157220A128A15BD
:101D2E00033083120313DA002F303106031DA02E69
:101D3E00A12EBE2E043054020318A62EA72EBE2EA0
:101D4E005408BF3E84003030831380000130AE0053
:101D5E002E08D4075408C63EAB002A300A168A1144
:101D6E0057220A128A15033083120313DA005A0817
:101D7E00031DC22EC32EC52E0A30FF2F043054066B
:101D8E00031DCA2ECB2EFE2FB201B30183120313F5
:101D9E003208BB3E840032080A168A11B0230A129A
:101DAE008A1583138000013083120313B2070318C0
:101DBE00B30A0030B3073308803AFF0080307F0249
:101DCE00031DEB2E04303202031CEE2EEF2ECD2E11
:101DDE00BB30F2000430F3000030F400BF300A16BE
:101DEE008A114D250A128A1572087304031D002FDD
:101DFE00012F032F0B30FF2F013083120313D90253
:101E0E005908031D0B2F0C2FA02F8430CC0003304C
:101E1E00CD000A168A11FB210A128A158030F600AF
:101E2E008830F7008030F8000A168A1108240A124A
:101E3E008A155E30F6008830F700C030F8000A16BA
:101E4E008A1108240A128A15F2010C300A168A1118
:101E5E00F9220A128A15A53083120313AE00AE0BB7
:101E6E00362F392F952FCA30AB006430A0000030CA
:101E7E00A1004D08A3004C08A2000A168A111426D0
:101E8E000A128A15831203132008303E0A168A118D
:101E9E0057220A128A15CB3083120313AB000A3075
:101EAE00A7000030A8000A30A0000030A1004D08A5
:101EBE00A3004C08A2000A168A1114260A128A15CB
:101ECE00831203132108AA002008A9000A168A11FA
:101EDE0011250A128A15831203132708303E0A169B
:101EEE008A1157220A128A15CC3083120313AB00C3
:101EFE000A30A7000030A8004D08AA004C08A9001F
:101F0E000A168A1111250A128A158312031327083D
:101F1E00303E0A168A1157220A128A1583120313AB
:101F2E004C084D04031D9C2F9D2F3A2F0330D900D2
:101F3E00D42F0A168A11FB210A128A15DE30F600FA
:101F4E008830F7008030F8000A168A1108240A1229
:101F5E008A15C03083120313AB005908303E0A169F
:101F6E008A1157220A128A150B30F6008930F700B3
:101F7E00C330F8000A168A1108240A128A154D3049
:101F8E0083120313B0001930AF004F30AE00AE0B0A
:101F9E00CE2FAF0BCE2FB00BCE2F0A168A11FB21F0
:101FAE000A128A156F30F6008830F7008030F8007C
:101FBE000A168A1108240A128A1583120313D401F1
:101FCE000330DA00F201C6300A168A11F9220A121B
:101FDE008A15F2010F300A168A11F9220A128A1591
:101FEE00A53083120313AE00AE0BFB2FFE2FFF3076
:101FFE000800FF1B0A2883137F1883170008840A22
:10200E000319FF0A08007F087F398A000408840A32
:06201E000319FF0A820015
:10233200FF34FF34013403340334831603130608D5
:102342003F3886000800831603139F178312031376
:102352001F14080064008001840A04060319003473
:102362000406AC290A128A15BF210A168A1183169D
:102372000313111408000A128A15BF210A168A11C2
:1023820083160313111508008312031312149214F7
:10239200FA308316031392008C140800F2000A121A
:1023A2008A15BF210A168A11720883120313930039
:1023B20008000A168A11BC210A168A110A168A1105
:1023C200B3210A168A110800831603138801091122
:1023D20089100A168A1150270A168A110800F2007B
:1023E20072088312031399000C1EF829F929F529A2
:1023F2000C120800F20101300A168A11F9220A169B
:102402008A110430F7003D30F600F60B062AF70B6E
:10241200062A0B2A0800831203131F151F19122AFA
:10242200132A0F2A1E08F500831603131E08F40050
:102432007508F3007408F200080000300A168A11C9
:1024420085230A168A11F60076088038F600760887
:10245200F30000300A168A119F220A168A11080018
:1024620000300A168A1185230A168A11F6007608A8
:102472007F39F6007608F30000300A168A119F228F
:102482000A168A11080000300A168A1185230A16D4
:102492008A11F60076087F39F6007608F3000030DC
:1024A2000A168A119F220A168A1108008312031340
:1024B200AC00F2012B080A168A11F9220A168A11B7
:1024C200F201F20A831203132C080A168A11F92266
:1024D2000A168A110800F500F401751C712A722A85
:1024E200762A7208F3007308F4070310F20D031042
:1024F200F50C7508031D7E2A7F2A6E2A74080800CF
:10250200F4000A168A11B3210A168A11A0300A169B
:102512008A11CF210A168A1174080A168A11CF214C
:102522000A168A1173080A168A11CF210A168A110D
:102532000A168A11BC210A168A110800F4000A162A
:102542008A11B3210A168A11D0300A168A11CF21B4
:102552000A168A1174080A168A11CF210A168A11DC
:1025620073080A168A11CF210A168A110A168A11CD
:10257200BC210A168A110800483465346C346C3464
:102582006F34203449347434273473342034203483
:1025920053346134683469346C34203450347234C6
:1025A2006F346A3465346334743420343A342034FA
:1025B2000A340034B8348934BB348934AC348934B5
:1025C200AF348934B2348934B53489349B34893494
:1025D20074348934353489349234893427348934D3
:1025E200313430343134303400344F344E340034EA
:1025F200F5007218FD2A012B831203130915042B0F
:10260200831203130911750888008914A630F30098
:10261200F30B092B00008312031389101B30F40003
:102622009E30F300F30B132BF40B132B0000080066
:10263200F2000A128A15BF210A168A1183160313A1
:1026420091150A128A15BF210A168A1183120313E1
:102652001308F3007203031D2F2B302B342B831628
:1026620003139116372B8316031391121116730855
:102672000800F6007608F500482B0130F4007408D3
:10268200F5070130F2070318F30A0030F307730865
:1026920083120313FF00720884000A168A110020B5
:1026A2000A168A11F40075088400740883178000E2
:1026B2000008031D5D2B5E2B3E2B0800742B740853
:1026C200FF00730884000A168A1100200A168A1174
:1026D2000A168A11F0210A168A110130F30703182B
:1026E200F40A0030F407740883120313FF0073081E
:1026F20084000A168A1100200A168A11003A031D64
:10270200832B842B602B0800F4000A168A11B32154
:102712000A168A11D0300A168A11CF210A168A1196
:1027220074080A168A11CF210A168A110A168A110A
:10273200DA210A168A11D1300A168A11CF210A1615
:102742008A1100300A168A1119230A168A11F50015
:102752000A168A11BC210A168A1175080800F400AB
:102762000A168A11B3210A168A11A0300A168A1192
:10277200CF210A168A1174080A168A11CF210A1665
:102782008A110A168A11DA210A168A11A1300A164A
:102792008A11CF210A168A1100300A168A111923CA
:1027A2000A168A11F5000A168A11BC210A168A1124
:1027B20075080800F800F72B7608FF0075088400FA
:1027C2000A168A1100200A168A11F30078080A16DE
:1027D2008A1181220A168A110130F5070318F60AB6
:1027E2000030F6070130F7007708F8077608831201
:1027F2000313FF00750884000A168A1100200A16C6
:102802008A11003A031D062C072CDD2B0800F20169
:1028120078080A168A11F9220A168A11262CF20160
:10282200F20A7708FF00760884000A168A1100204F
:102832000A168A110A168A11F9220A168A11013019
:10284200F6070318F70A0030F70777088312031315
:10285200FF00760884000A168A1100200A168A11DF
:10286200003A031D352C362C102C0800831203135A
:10287200981718162808AC002908AD002A08AE00DF
:102882002B08AF0004300310AC0DAD0DAE0DAF0D33
:10289200FF3E031D442C2F08A3002E08A2002D0882
:1028A200A1002C08A0000130A7003130A6002D3075
:1028B200A5000030A4000A128A1589220A168A117C
:1028C200831203132008FF3E8316031399008C160C
:1028D20008008312031394152808AC002908AD00E0
:1028E2002A08AE002B08AF0002300310AC0DAD0D6C
:1028F200AE0DAF0DFF3E031D762C2F08A3002E0850
:10290200A2002D08A1002C08A0000130A700313040
:10291200A6002D30A5000030A4000A128A158922D3
:102922000A168A11831203132008FF3E831603132B
:102932009300831203139416080083120313A30057
:1029420050302306031DA62CA72CD52CFF30CE0019
:10295200FF30CF00FF30D600FF30D7001930F6002D
:102962008930F7008130F8000A168A1108240A1605
:102972008A11CF30F6008830F700C130F8000A160D
:102982008A1108240A168A114D3083120313A200F9
:102992001930A1004F30A000A00BCD2CA10BCD2CE3
:1029A200A20BCD2C0C30D62C0D3008000A168A1141
:1029B200E5210A168A110A168A11A4210A168A1119
:1029C200003083120313AB000F30AA004230A9007B
:1029D2004030A8000A168A116A240A168A110A16B9
:1029E2008A1144220A168A110A168A119E210A168F
:1029F2008A110A168A11C5210A168A110030831219
:102A02000313AB000030AA002530A9008030A800D3
:102A12000A168A1137240A168A118B170B17080017
:102A220083120313270828040319182D192D482D82
:102A3200F801F80A272D01300310A70DA80DFF3E5B
:102A4200031D1D2D0130F7007708F807A81F2A2D56
:102A52002B2D1C2D28082A02031D312D270829029F
:102A6200031C342D352D3B2D2708A9022808031CF1
:102A7200AA03AA0201300310A80CA70CFF3E031DF3
:102A82003C2D0130F802031D472D482D2B2D2A081D
:102A9200A8002908A7000800F7007A2D770884000B
:102AA200831300080319562D572D632D72088400D5
:102AB2000008F50077088400000875060319622DE6
:102AC200632D722D720884000008F50077088400D7
:102AD2000008F60075087602F200F301031CF30306
:102AE2008A2D0130F5007508F7070130F5007508E9
:102AF200F2070130F3020030031CF403F402730AFC
:102B0200031D872D740A031D872D882D4F2DF20179
:102B1200F3010800831203138C1C902D912DBC2D00
:102B22000130C2070318C30A0030C307E23042066D
:102B3200043003194306031D9F2DA02DBB2DC20196
:102B4200C3014C084D040319A72DA82DAE2D013049
:102B5200CC020030031CCD03CD024C084D04031DF2
:102B6200B32DB42DBB2D5A080319B82DB92DBB2D89
:102B72000130DA028C108C1EBF2DC02DC82D981C7E
:102B8200C32DC42DC52D98101A08D5008C127108BA
:102B92008A00700E8300FE0E7E0E0900831203135C
:102BA200A0002008A100F62D0130F4020030031C21
:102BB200F503F5027308F7007208F600F20A03192A
:102BC200F30A760884008317771C83130008F80041
:102BD200210884000130A1077808831380000008CF
:102BE200031DF42DF52DF62D052E74087504031D15
:102BF200FB2DFC2DD52D052E210884008313800189
:102C02000130F6007608A1070130F4020030031CFF
:102C1200F503F502740A031D122E750A031D122E06
:102C2200132EFD2D080083120313A501A60120080F
:102C3200210403191D2E1E2E552EA401A40A2C2E8A
:102C420001300310A00DA10DFF3E031D222E013005
:102C5200F6007608A407A11F2F2E302E212E013058
:102C62000310A50DA60DFF3E031D312E21082302E0
:102C7200031D3D2E20082202031C402E412E482E09
:102C82002008A2022108031CA303A3022514013079
:102C92000310A10CA00CFF3E031D492E0130A4021B
:102CA200031D542E552E302E2608A1002508A00003
:102CB200080002300A168A1185230A168A11F900C1
:102CC20001300A168A1185230A168A11FA00003089
:102CD2000A168A1185230A168A11FB007908F60062
:102CE20004300310F60CFF3E031D722E76080339E2
:102CF200303E83160313B40079080F39303EB50015
:102D02007A08F60004300310F60CFF3E031D842EF1
:102D120076080739303EB6007A080F39303EB700E0
:102D22007B08F60004300310F60CFF3E031D942EC0
:102D320076080739303EB8007B080F39303EB900BB
:102D4200BA010800013083120313D6070318D70A09
:102D52000030D7070A3056065704031DB12EB22E93
:102D6200B42ED601D7010A30F20056080A168A118B
:102D72006C220A168A11053E83120313A000A101D8
:102D8200A201DA2E2108A03E84000008F3002008E8
:102D92000A168A1181220A168A110130F600760873
:102DA20083120313A0070130A1070318A20A0030FF
:102DB200A2072108A03E840083130008031DE22E0F
:102DC200E32EC32E4F08803AFF0080307F02031D9E
:102DD200EC2E0A304E020318EF2EF02EF82E0130A0
:102DE20083120313CE070318CF0A0030CF0708005F
:102DF20083120313B0004D30F6008830F7008030A4
:102E0200F8000A168A1108240A168A110A128A156B
:102E120027220A168A11831203133008F6000130A2
:102E2200F700CA30F8000A168A1108240A168A1115
:102E3200CE3083120313AB000A30F2000030F300ED
:102E42002D08AE00AF012E08F4002F08F5000A127B
:102E52008A15F1220A168A117208303E0A168A1160
:102E620057220A168A11CF3083120313AB000A309D
:102E7200F2000030F3002D08AE00AF012E08F4007E
:102E82002F08F5000A168A11A7270A168A11720856
:102E9200303E0A168A1157220A168A110800C330D8
:102EA200F700CD30F600F60B542FF70B542FF2013A
:102EB20033300A168A11F9220A168A111B30F700DA
:102EC2009E30F600F60B632FF70B632F0000F20122
:102ED20033300A168A11F9220A168A11A630F60030
:102EE200F60B712F0000F20133300A168A11F92213
:102EF2000A168A117C2F7D2F0000F20138300A1643
:102F02008A11F9220A168A11A630F600F60B872FCB
:102F12000000F20101300A168A11F9220A168A11FA
:102F22000430F7003D30F600F60B952FF70B952F86
:102F32009A2FF2010C300A168A11F9220A168A1106
:102F4200A630F600F60BA32F00000800F801F51FCB
:102F5200AB2FAC2FB32FF409F509F40A0319F50AC4
:102F6200F801F80AF31FB62FB72FBC2FF209F309A5
:102F7200F20A0319F30A720873040319C12FC22F4C
:102F8200F12FF701F70AD02F01300310F20DF30DE4
:102F9200FF3E031DC62F0130F6007608F707F31F28
:102FA200D32FD42FC52F73087502031DDA2F720891
:102FB2007402031CDD2FDE2FE42F7208F402730863
:102FC200031CF503F50201300310F30CF20CFF3E73
:102FD200031DE52F0130F702031DF02FF12FD42F2F
:102FE20078080319F52FF62FFB2FF409F509F40AD7
:0E2FF2000319F50A7508F3007408F2000800D0
:02400E00FB3F76
:00000001FF
