:020000040000FA
:060000000A128A11EE2F26
:100852008316031306083F38860008000A128A111D
:1008620029240A128A110A128A1145240A128A11AB
:1008720008003F3406345B344F3466346D347D34C3
:1008820007347F346F34013483160313880105085B
:10089200C3398500831203130508C3398500080094
:1008A2007E088A007F0882000A128A1151240A12E5
:1008B2008A118000840A04087D0603190034FF0AA5
:1008C2000319FE0A552CF500F401751C692C6A2CDB
:1008D2006E2C7208F3007308F4070310F20D031074
:1008E200F50C7508031D762C772C662C740808000D
:1008F200F1006400831603178C18802C812C7A2C4B
:100902007108831203178D003F30F00070088316C0
:1009120003178C050C14831203170C080800F1004E
:100922007108031D952C962C9B2C83120313060829
:100932003F39B92C3F30831203130605F0003F30D4
:1009420070060319A52CA62CAD2C45080319AA2C58
:10095200AB2CAD2CC501962C3F300605F0003F3084
:100962007006031DB52CB62CB82CC501C50A3F3044
:100972000800F300F40174087307F00070088400A3
:10098200831300088312031388000430F000740AF2
:10099200CC2C0310F00DFF3E031DCA2C0508C339F1
:1009A200700485009030F1000130F2000130F10254
:1009B2000030031CF203F202710A031DE42C720AD6
:1009C200031DE42CE52CD72C0130F0007008F4074D
:1009D20004307402031CEE2CEF2CBC2C0800831292
:1009E2000313A400831603178C18F82CF92CF32C8C
:1009F200831203132408831203178D008312031337
:100A02002208831203178C003F3083120313A300C2
:100A12002308831603178C058312031303108B1FFD
:100A2200132D142D152D03148B13831603170C1578
:100A320055308D00AA308D008C140C1183120313D3
:100A4200031C242D252D262D8B170800831203133A
:100A5200A101FC1F2D2D2E2D352DFB09FC09FB0AB2
:100A62000319FC0AA101A10AFA1F382D392D3E2DC6
:100A7200F909FA09F90A0319FA0A79087A04031931
:100A8200432D442D732DA001A00A522D01300310D5
:100A9200F90DFA0DFF3E031D482D0130FD007D08C2
:100AA200A007FA1F552D562D472D7A087C02031DEB
:100AB2005C2D79087B02031C5F2D602D662D790861
:100AC200FB027A08031CFC03FC0201300310FA0C3F
:100AD200F90CFF3E031D672D0130A002031D722D8C
:100AE200732D562D21080319772D782D7D2DFB09A5
:100AF200FC09FB0A0319FC0A7C08FA007B08F900CE
:100B02000800F601F11F862D872D8E2DF009F109BF
:100B1200F00A0319F10AF601F60AF31F912D922D3C
:100B22009B2DF209F309F20A0319F30A0130F400CA
:100B32007408F606F701F801700871040319A22D72
:100B4200A32DDA2DF501F50AB12D01300310F00DB8
:100B5200F10DFF3E031DA72D0130F4007408F507C7
:100B6200F11FB42DB52DA62D01300310F70DF80D90
:100B7200FF3E031DB62D71087302031DC22D7008BE
:100B82007202031CC52DC62DCD2D7008F20271080C
:100B9200031CF303F302771401300310F10CF00C81
:100BA200FF3E031DCE2D0130F502031DD92DDA2D96
:100BB200B52D76080319DE2DDF2DE42DF709F8098E
:100BC200F70A0319F80A7808F1007708F00008001C
:100BD20004300A128A1179240A128A11013A03197D
:100BE200F32DF42D222E83120313A20100300A12D8
:100BF2008A11F0240A128A1183120313A20101300E
:100C02000A128A11F0240A128A1183120313A20112
:100C120002300A128A11F0240A128A118312031373
:100C2200A20103300A128A11F0240A128A118312D5
:100C32000313A201A20A04300A128A11F0240A1232
:100C42008A1183120313B701B80100300A128A1104
:100C520079240A128A1183120313A5000A30F200C2
:100C620001300A128A1179240A128A110A128A118F
:100C720064240A128A1183120313A6006430F2005C
:100C820002300A128A1179240A128A110A128A116E
:100C920064240A128A1183120313A700E830F200B7
:100CA20003300A128A1179240A128A110A128A114D
:100CB20064240A128A1183120313270726072507C1
:100CC200BA00293084003B30A5000408A6000A308F
:100CD200A7002508840083130008A800A50A260897
:100CE200840028088000A60AA70B6A2E0A128A111D
:100CF2002F240A128A1101300A128A1190240A1230
:100D02008A1183120313B9003D303906031D8A2E5E
:100D12008B2EC72E00300A128A1179240A128A11E8
:100D220083120313A5000A30F20001300A128A115D
:100D320079240A128A110A128A1164240A128A1167
:100D420083120313A6006430F20002300A128A11E1
:100D520079240A128A110A128A1164240A128A1147
:100D620083120313A700E830F20003300A128A113B
:100D720079240A128A110A128A1164240A128A1127
:100D820083120313270726072507BA003E303906C8
:100D9200031DCC2ECD2E552F0A30F9000030FA005B
:100DA2003A08A500A6012508FB002608FC000A1245
:100DB2008A1127250A128A11790883120313A200C5
:100DC20000300A128A11F0240A128A110A30F9003C
:100DD2000030FA000A30F0000030F10083120313F1
:100DE2003A08A500A6012508F2002608F3000A1217
:100DF2008A1182250A128A117108FC007008FB0010
:100E02000A128A1127250A128A11790883120313FA
:100E1200A20001300A128A11F0240A128A110A3041
:100E2200F9000030FA006430F0000030F100831263
:100E320003133A08A500A6012508F2002608F300CC
:100E42000A128A1182250A128A117108FC0070089E
:100E5200FB000A128A1127250A128A1179088312C5
:100E62000313A20002300A128A11F0240A128A1114
:100E7200E830F0000330F100831203133A08A500B2
:100E8200A6012508F2002608F3000A128A1182251B
:100E92000A128A11700883120313A20003300A1285
:100EA2008A11F0240A128A11013083120313B70740
:100EB2000318B80A0030B807FB3037063804031DA0
:100EC200632F642F6A2FB701B8010130A5002508EE
:100ED200BA070A30F9000030FA003A08A500A60164
:100EE2002508FB002608FC000A128A1127250A128F
:100EF2008A117908293E84008313000883120313A0
:100F0200B6000A30F9000030FA000A30F000003072
:100F1200F1003A08A500A6012508F2002608F30010
:100F22000A128A1182250A128A117108FC007008BD
:100F3200FB000A128A1127250A128A117908293E12
:100F420084008313000883120313B5000A30F900EA
:100F52000030FA006430F0000030F1003A08A500D9
:100F6200A6012508F2002608F3000A128A1182253A
:100F72000A128A117108FC007008FB000A128A1119
:100F820027250A128A117908293E84008313000852
:100F920083120313B400E830F0000330F1003A0882
:100FA200A500A6012508F2002608F3000A128A11FC
:100FB20082250A128A117008293E840083130008D0
:100FC20083120313B30033300A128A11BA240A12AD
:100FD2008A117C2E0A128A11002883134630FD00E2
:100FE2000430FE003A30FF003B3084000A128A11BE
:0E0FF20055240A128A1183010A128A11E92D70
:02400E00FB3F76
:00000001FF
