:020000040000FA
:060000000A128A110C280F
:10000800FE00030EF1000A08F2000A128A118F2876
:100018000A128A110F28FA0183010A128A115A2832
:1000280083120313A501A6012008210403191D2822
:100038001E285528A401A40A2C2801300310A00D5D
:10004800A10DFF3E031D22280130F7007708A40701
:10005800A11F2F283028212801300310A50DA60D37
:10006800FF3E031D312821082302031D3D282008D7
:100078002202031C4028412848282008A2022108FF
:10008800031CA303A302251401300310A10CA00C28
:10009800FF3E031D49280130A402031D542855289A
:1000A80030282608A1002508A00008000A128A1195
:1000B800D2200A128A110A3083120313A0000030DA
:1000C800A1000A128A11C0200A128A117408831228
:1000D8000313A3007308A2000A128A1114200A123B
:1000E8008A11831203132008A700F430F8000130A6
:1000F800F900FF30F8070318F90AFF30F907780A02
:10010800031D8A28790A031D8A288B287D285F28E1
:100118000A128A110C280B1D92289328B9288312D9
:1001280003130108083E81007A082702031C9D2852
:100138009E28A0280814AD2827087A02031CA528A1
:10014800A628AD2864307A020318AB28AC28AD285D
:1001580008100130F0007008FA0765307A06031DB0
:10016800B628B728B828FA010B1172088A00710E50
:100178008300FE0E7E0E0900831203131F151F193C
:10018800C628C728C3281E08F600831603131E08AE
:10019800F5007608F4007508F300080083120313CD
:1001A80088018316031388010A128A11E4200A12AF
:1001B8008A118B170A128A11EE200A128A11080076
:1001C80083160313811281150630831203138100ED
:1001D8008B160800831603139F17831203131F142B
:0201E80008000D
:02400E00FB3F76
:00000001FF
