:020000040000FA
:100000000A128A11EE2FFF1B0D2883137F18831706
:100010000008840A0319FF0A080000308A00040857
:10002000840A82070034203444344F3457344E3429
:10003000203443344F3455344E34543445345234E0
:100040002034003443346F3475346E3474343A34AD
:0200500000347A
:100B54000A128A11B0250A128A1108008316031397
:100B64008801091189100A128A1128260A128A1189
:100B7400080039343934393439343934393439346E
:100B840039343934393400347E088A007F088200CD
:100B94000A128A11C6250A128A118000840A0408DE
:100BA4007D0603190034FF0A0319FE0ACA2DF30057
:100BB4007018DD2DE12D831203130915E42D831222
:100BC40003130911730888008914A630F100F10B8E
:100BD400E92D00008312031389101B30F2009E30AC
:100BE400F100F10BF32DF20BF32D00000800F001DE
:100BF40076080A128A11D9250A128A11172EF001D1
:100C0400F00A7508FF00740884000A128A11032090
:100C14000A128A110A128A11D9250A128A1101307C
:100C2400F4070318F50A0030F50775088312031357
:100C3400FF00740884000A128A1103200A128A1120
:100C4400003A031D262E272E012E0800C330F5007E
:100C5400CD30F400F40B2C2EF50B2C2EF001333098
:100C64000A128A11D9250A128A111B30F5009E3006
:100C7400F400F40B3B2EF50B3B2E0000F001333057
:100C84000A128A11D9250A128A11A630F400F40B2B
:100C9400492E0000F00133300A128A11D9250A12B4
:100CA4008A11542E552E0000F00138300A128A1190
:100CB400D9250A128A11A630F400F40B5F2E000025
:100CC400F00101300A128A11D9250A128A1104305E
:100CD400F5003D30F400F40B6D2EF50B6D2E722EE5
:100CE400F0010C300A128A11D9250A128A11A63091
:100CF400F400F40B7B2E000008000A128A11AA25C6
:100D04000A128A11903083120313A0000130A1004B
:100D1400223084002D30F7000408F8000B30F9006D
:100D24007708840083130008FA00F70A780884001F
:100D34007A088000F80AF90B922E0130F400803012
:100D4400F5008030F6000A128A11F9250A128A1178
:100D54001030F4008030F500C030F6000A128A1119
:100D6400F9250A128A112230F4000030F500C63049
:100D7400F6000A128A11F9250A128A118312031342
:100D84002108F800A003200AF7000319A10378083A
:100D9400803AFF0080307F02031DD22E013077029B
:100DA4000318D52ED62EC02E903083120313A00024
:100DB4000130A1000130AB0230302B020318E32EC6
:100DC400E42EE82E0130AA023930AB0030302A027A
:100DD4000318ED2EEE2EF42E0130A9023930AA00AC
:100DE4003930AB00303029020318F92EFA2E022FC5
:100DF4000130A8023930A9003930AA003930AB00DB
:100E0400303028020318072F082F122F0130A702B1
:100E14003930A8003930A9003930AA003930AB0084
:100E2400303027020318172F182F242F0130A60261
:100E34003930A7003930A8003930A9003930AA0068
:100E44003930AB00303026020318292F2A2F382FCF
:100E54000130A5023930A6003930A7003930A80086
:100E64003930A9003930AA003930AB0030302502BE
:100E740003183D2F3E2F4E2F0130A4023930A50018
:100E84003930A6003930A7003930A8003930A9001C
:100E94003930AA003930AB00303024020318532F04
:100EA400542F662F0130A3023930A4003930A50035
:100EB4003930A6003930A7003930A8003930A900EC
:100EC4003930AA003930AB003030230203186B2FBD
:100ED4006C2F802F0130A2023930A3003930A400D6
:100EE4003930A5003930A6003930A7003930A800C0
:100EF4003930A9003930AA003930AB003030220231
:100F04000318852F862F9A2F3930A2003930A30079
:100F14003930A4003930A5003930A6003930A70093
:100F24003930A8003930A9003930AA003930AB0073
:100F340030302206031D9F2FA02FB52E30302306FC
:100F4400031DA52FA62FB52E30302406031DAB2F6D
:100F5400AC2FB52E30302506031DB12FB22FB52E80
:100F640030302606031DB72FB82FB52E3030270694
:100F7400031DBD2FBE2FB52E30302806031DC32FF1
:100F8400C42FB52E30302906031DC92FCA2FB52E04
:100F940030302A06031DCF2FD02FB52E30302B062C
:100FA400031DD52FD62FB52E3030A2003030A3002C
:100FB4003030A4003030A5003030A6003030A70017
:100FC4003030A8003030A9003030AA003030AB00F7
:100FD400B52E0A128A11002883133830FD0005301B
:100FE400FE00BB30FF002D3084000A128A11CA258E
:0C0FF4000A128A1183010A128A117F2E52
:02400E00FB3F76
:00000001FF
